:0200000480007A
:100000006F00000B1300000013000000130000003D
:100010001300000013000000130000001300000094
:10002000232E11FE232C51FE232A61FE232871FE6C
:100030002326A1FE2324B1FE2322C1FE2320D1FECC
:10004000232EE1FC232CF1FC232A01FD232811FDA2
:100050002326C1FD2324D1FD2322E1FD2320F1FD30
:10006000130101FCEF0080108320C1038322810370
:1000700003234103832301030325C1028325810256
:1000800003264102832601020327C1018327810140
:100090000328410183280101032EC100832E810022
:1000A000032F4100832F010013010104730020304E
:1000B00097410000938181F417610000130181765C
:1000C0001385C18197650000938585356308B50068
:1000D00023200500130545006FF05FFF1735000072
:1000E0001305C5711301C1FF973500009385057194
:1000F000630EB50083260500130545002320A100EB
:10010000E7800600032501006FF01FFE1301410088
:10011000371500001305058873104530372500009A
:100120001305858073100530EF20506B6F000000C1
:10013000B70701F01307300123A4E700130770008D
:1001400023A6E70067800000B70702F023AA070094
:100150001307F0FF23A8E70067800000B70702F04D
:1001600023A0070423A40704678000006780000021
:10017000B70702F003A587046780000003C7518317
:10018000930710046304F7006780000083270500CD
:1001900003A7C18393879700B387E7402320F50027
:1001A0006780000003A64184630806000327060059
:1001B0002320E50003A6418483A5C1831306C6005E
:1001C0001305A0006F005011130101FF232021012E
:1001D00083A74184232481000324050003A707008B
:1001E0002322910083AE470003AE870003A30701DB
:1001F00083A8470103A8870183A5070203A6470236
:1002000083A68702232611009304050003A5C701D6
:1002100083A7C7022320E40003A70400232EA40021
:100220002326F4022322D401930750002324C4017F
:1002300023286400232A1401232C04012320B40260
:100240002322C4022324D40223A6F4002326F4008C
:100250002320E40013050400EFF0DFF483274400BB
:100260006380070883A704008320C1000324810062
:1002700083AF070003AF470083AE870003AEC7001C
:1002800003A3070183A8470103A8870183A5C7012A
:1002900003A6070283A6470203A7870283A7C70214
:1002A00023A0F40123A2E40123A4D40123A6C401C2
:1002B00023A8640023AA140123AC040123AEB400D4
:1002C00023A0C40223A2D40223A4E40223A6F4029E
:1002D000032901008324410013010101678000000C
:1002E00003A5840093076000930584002326F4008F
:1002F000EF00500F83A741840325C4001306C400F8
:1003000083A707008320C100832441002320F40039
:1003100003248100032901009305A00013010101BA
:100320006F00807B83C7518383A681839387F7FB0C
:1003300093B71700B3E7D70023ACF182130720046B
:10034000238AE1826780000013071004A38AE182F8
:1003500023AC018267800000130101F6130500033E
:10036000232E1108232C8108232C81072326B10773
:10037000232A91082328210923263109232441090E
:100380002322510923206109232E7107232A910773
:100390002328A107EF00102123A0A1841305000347
:1003A000EF00502083A7018423A2A1842320F5001D
:1003B000930720002324F500B735008093078002BF
:1003C0002326F5001306F00193850504232205007A
:1003D00013050501EF001034B73700809387875A63
:1003E00003AE070003A3470083A8870003A8C70044
:1003F00083A5070103A6470183A6870103D7C70189
:1004000083C7E701B74D0080231EE102230FF102ED
:100410001387CD909307A0001305A000232EF76447
:100420002320C10323226102232411032326010375
:100430002328B102232AC102232CD102EF00500944
:100440003735008013050506EF0090281305A0003E
:10045000EF00100883A70183638C076237350080A3
:1004600013050509EF00D0261305A000EF00500684
:10047000373500801305C50EEF0050151305A00099
:10048000EF001005373500809305401F1305451216
:10049000EF00D013EFF0DFCDB739008037340080A4
:1004A00023A6A182130A10009389895C930420007B
:1004B0001304845EEFF05FE9EFF0DFE683C7E90144
:1004C00003A6490183AE090003AE490003A38900D6
:1004D00083A8C90003A8090183A6890103D7C9011C
:1004E000230FF10493050104930710001305010283
:1004F000232AC104232A91002320D1052322C105E8
:10050000232461042326110523280105232CD1046B
:10051000231EE104232EF100EF00006603264101B3
:100520001335150023ACA18263CAC40293172600B9
:10053000B387C7009387D7FF1305060093053000E4
:1005400013068101232CF100EF000059032641011D
:1005500013061600232AC100E3DAC4FC83268101B6
:100560009385CD901385C184EF00005803A5418485
:10057000130B1004930A3000EFF01FC503C741832B
:100580009307000463F4E70213050B00930530049E
:10059000EF00805C8327C10113071B006302F5484D
:1005A00083C74183137BF70FE3F067FF8325410186
:1005B00013850A00130A1A00EF201010032B810183
:1005C0002326A10093050B00EF205011930A05008C
:1005D00013054101232A5101EFF05FBA9307501F21
:1005E000E31AFAECEFF0DFB883A6C1821317150007
:1005F0003307A70093971600B387D7001317370068
:1006000093973700B387D7003307A70037350080AB
:1006100013172700939727001305451523A6F1828A
:1006200023A4E182EF00D00A1305A000EF00406A86
:100630003735008013054516EF0090091305A0001B
:10064000EF00006983A5C183373500801305C51904
:1006500037340080EF008077930550001305841B2A
:10066000EF00C07683A58183373500801305451DD3
:10067000EF00C075930510001305841BEF00007593
:1006800083C55183373500801305051FEF000074C3
:10069000B7340080930510041385C420EF00007365
:1006A00083C541833735008013058522EF00007232
:1006B000930520041385C420EF004071938CC184FE
:1006C00083A50C023735008013054524EF00007028
:1006D000930570001305841BEF00406FB74700803F
:1006E0009387C79083A5C765373500801305052616
:1006F000EF00C06D373500801305C527EF00407D42
:10070000373500801305852AEF00807C83A741845C
:10071000373D008013054D2B83A50700B73B0080B4
:10072000373A0080EF00806A373500801305052DC9
:10073000EF00007A83A7418413850B30B73900801E
:1007400083A5470037390080B73C0080EF00006880
:10075000930500001305841BEF00406783A74184C5
:100760001305CA3183A58700EF004066930520007A
:100770001305841BEF00806583A7418413858933AB
:1007800083A5C700EF008064930510011305841B47
:10079000EF00C06383A541841305493593850501A6
:1007A000EF00C06213850C37EF0080723735008090
:1007B0001305453AEF00C07183A7018413054D2B43
:1007C00083A50700EF008060373500801305453BA7
:1007D000EF00007083A7018413850B3083A54700C9
:1007E000EF00C05E930500001305841BEF00005E60
:1007F00083A701841305CA3183A58700EF00005D3C
:10080000930510001305841BEF00405C83A701844F
:100810001385893383A5C700EF00405B9305200152
:100820001305841BEF00805A83A501841305493505
:1008300093850501EF00805913850C37EF0040695F
:1008400083254101373500801305453FEF000058EF
:10085000930550001305841BEF0040578327C10008
:100860003735008013050541338B674193173B00F3
:10087000338B6741B3055B41EF0040559305D000D2
:100880001305841BEF0080548325810137350080D8
:100890001305C542EF008053930570001305841BB8
:1008A000EF00C0528325C101373500801305854410
:1008B000EF00C051930510001305841BEF00005199
:1008C000373500809305010213054546EF000050BF
:1008D0003735008013050548EF00805F373500800D
:1008E000930501041305454BEF00404E373500805A
:1008F0001305054DEF00C05D1305A000EF00403D5E
:1009000083A5818203A7C1829307301FB385E54089
:1009100023A2B18263DAB718373500801305C555B5
:10092000EF00C04A03A54182EF20C0221304050056
:10093000EF20C032B737008003A6877F83A6C77F2A
:10094000EF10C00303A6818083A6C180EF001006CC
:10095000EF20803E23A0A18203A50181930504001E
:10096000EF10C06823AEA18037350080130505570E
:10097000EF00C04503A54182EF20C01D930505008F
:1009800003A54181EF10806613040500EF20801558
:1009900093040500EF20001C9305050013050400D7
:1009A000EF10904F83A58181EF10D01CEF208013B2
:1009B0001304050037350080938504001305055A9C
:1009C000EF00C0409307900063D287103735008056
:1009D000930504001305455AEF00403F1305A0009E
:1009E000EF00002F8320C1090324810983244109DA
:1009F000032901098329C108032A8108832A4108A0
:100A0000032B0108832BC107032C8107832C41078B
:100A1000032D0107832DC1061301010A6780000021
:100A20009305C10113050000EF00C01B032E040055
:100A300003234400832884000328C4000325040101
:100A400083254401032684018356C4010347E4013E
:100A500083C74183130B1B002320C105232261049C
:100A600023241105232601052328A104232AB104E8
:100A7000232CC104231ED104230FE10423AE4183A0
:100A8000137BFB0F930A0A00E3F067B16FF01FB20C
:100A9000373500801305C50BEF0080431305A00018
:100AA000EF0000236FF0DF9C3735008013054550C1
:100AB000EF000042373500801305C553EF00404179
:100AC0001305A000EF00C0206FF0DFF11305000355
:100AD000EF0000206FF09FEF13052500B305B50070
:100AE0002320B600678000001307560093171700F5
:100AF000B387E70093973700B387E7001316260004
:100B00001318270093973700330505013308F600C3
:100B10002320D5002322D500232CE506B38605012A
:100B200003A8060123AAE60023ACE6001307180079
:100B300023A8E60003270500B385C500B387F500A9
:100B4000B7150000B387F50023AAE7FA1307500092
:100B500023AEE182678000001375F50F93F5F50F62
:100B60006306B5001305000067800000A38AA18218
:100B70001305100067800000130101FF232481008A
:100B800023229100232611001304050093840500FD
:100B900083C5340003452400EFF01FFCE31A05FE73
:100BA0009385040013050400EF00804893070000BC
:100BB0006358A0001307A00023AEE1829307100042
:100BC0008320C10003248100832441001385070092
:100BD00013010101678000001305E5FF13351500BF
:100BE00067800000130101FF23248100232291006C
:100BF000130405002326110093840500EFF0DFFDA8
:100C000093070400631405009307300023A0F40049
:100C1000130710006308E402630C0402930720002A
:100C20006304F404130740006314E40023A0F400F9
:100C30008320C100032481008324410013010101AA
:100C40006780000003A7C1839307400663DAE702C9
:100C50008320C1000324810023A0040083244100D9
:100C600013010101678000008320C100032481007B
:100C700023A0E400832441001301010167800000E8
:100C80009307300023A0F4006FF09FFAB70701F03C
:100C900003A54700135505011375F50F6780000084
:100CA000130101FF232481002326110013040500F2
:100CB000EFF0DFFDE30E05FEB70701F023A087008C
:100CC0008320C1000324810013010101678000001B
:100CD0006FF01FFD130101FF232481002326110063
:100CE0001304050003450500630A050013041400FE
:100CF000EFF01FFE03450400E31A05FE8320C10048
:100D00000324810013010101678000001375F50FB2
:100D10006FF01FFC130101FD232291022326110213
:100D20002324810223202103930405006344050644
:100D300013090100130409006F004002EF20402254
:100D40009307050313041400138504009305A00002
:100D5000A30FF4FEEF208018930405009305A00074
:100D600013850400E39C04FCE30A24FD1304F4FF50
:100D700003450400EFF09FF9E31A24FF8320C1022A
:100D80000324810283244102032901021301010388
:100D9000678000001305D002EFF05FF7B3049040C6
:100DA0006FF01FF903A78184B307A70037650080A0
:100DB00023A4F1841305C501930600403305E50023
:100DC00063D4F6007300100067800000130101FB7C
:100DD00023229102232611022324810223202103AE
:100DE000232E3101232C4101232A510193040500B4
:100DF000034505002322F10493074103232AB1028E
:100E0000232CC102232ED1022320E1042324010537
:100E1000232611052326F1006308050213040000B0
:100E2000930A50021309300693093007130A40064B
:100E300063025505EFF09FED13041400B38784009F
:100E400003C50700E31605FE8320C10203248102C7
:100E500083244102032901028329C101032A81015C
:100E6000832A41011301010567800000638A37036B
:100E70006384470513041400B387840083C7070005
:100E8000E38C07FAE39427FF8327C10003A507003B
:100E9000938747002326F100EFF05FE76FF0DFF95B
:100EA0008327C10003A50700938747002326F1008D
:100EB000EFF05FE26FF05FF88327C10003A5070042
:100EC000938747002326F100EFF0DFE46FF0DFF6B1
:100ED000130101FF232481002326110013040500C0
:100EE00003450500630A050013041400EFF05FDEFC
:100EF00003450400E31A05FE1305A000EFF05FDDD3
:100F00008320C100032481001305000013010101A7
:100F100067800000B3C7A50093F73700B308C5008A
:100F2000639207069307300063FEC704937735008A
:100F3000130705006398070613F6C8FF930706FE1C
:100F4000636CF708637CC70293860500930707006C
:100F500003A80600938747009386460023AE07FF49
:100F6000E3E8C7FE9307F6FFB387E74093F7C7FFB1
:100F7000938747003307F700B385F50063681701CF
:100F80006780000013070500E37C15FF83C7050099
:100F90001307170093851500A30FF7FEE36817FFEB
:100FA0006780000083C6050013071700937737009A
:100FB000A30FD7FE93851500E38007F883C60500CD
:100FC0001307170093773700A30FD7FE93851500FB
:100FD000E39A07FC6FF05FF683A6050083A2450045
:100FE00083AF850003AFC50083AE050103AE4501A5
:100FF00003A3850103A8C501938545022320D700DB
:1010000083A6C5FF232257002324F7012326E701E7
:101010002328D701232AC701232C6700232E070189
:1010200013074702232ED7FEE368F7FA6FF09FF10C
:101030003367B5009303F0FF137737006310071091
:10104000B7877F7F9387F7F70326050083A6050000
:10105000B372F6003363F600B382F200B3E26200CB
:10106000639272106316D6080326450083A64500D6
:10107000B372F6003363F600B382F200B3E26200AB
:10108000639E720C6316D6060326850083A6850030
:10109000B372F6003363F600B382F200B3E262008B
:1010A0006398720C6316D6040326C50083A6C50098
:1010B000B372F6003363F600B382F200B3E262006B
:1010C0006392720C6316D6020326050183A60501FE
:1010D000B372F6003363F600B382F200B3E262004B
:1010E000639C720A1305450193854501E30ED6F40E
:1010F0001317060193970601631EF70013570601A5
:1011000093D706013305F7409375F50F63900502F9
:10111000678000001357070193D707013305F74095
:101120009375F50F63940500678000001377F70F40
:1011300093F7F70F3305F74067800000034605007B
:1011400083C6050013051500938515006314D600AA
:10115000E31606FE3305D640678000001305450000
:1011600093854500E31CD6FC130500006780000052
:101170001305850093858500E312D6FC1305000056
:10118000678000001305C5009385C500E318D6FAF3
:101190001305000067800000130505019385050114
:1011A000E31ED6F81305000067800000130101FB61
:1011B000232E310393D945012322910423202105B5
:1011C000232A510323286103232671039394C50026
:1011D0002326110423248104232C41032324810387
:1011E000232291032320A103232EB10193F9F97F38
:1011F00013090500930B0600138B060093D4C4005B
:1012000093DAF5016382090A9307F07F6380F9108E
:10121000935CD50193943400B3E49C00B70C800038
:10122000B3EC940113143500138A19C0130C000099
:1012300013554B011319CB009379F57F1359C9004E
:10124000135BFB01638209109307F07F6382F91639
:101250001315390093D7DB0133E5A7003709800068
:101260003369250113983B00138519C093070000CB
:1012700013172C003367F7001307F7FF9306E000FE
:10128000B3C46A01B309AA4063E0E61697260000DA
:101290009386C637131727003307D70003270700A5
:1012A0003307D70067000700B3ECA400638E0C0679
:1012B0006380040413850400EF10904D930755FFDD
:1012C0001307C001634CF702930CD001130485FF90
:1012D000B38CFC40B3948400B35C9901B3EC9C00E4
:1012E000331489009309D0C0338AA9406FF01FF4EA
:1012F000EF10104A130505026FF05FFC930485FDA3
:10130000B31C9900130400006FF0DFFDB3ECA400E0
:1013100063840C0213040500938C0400130AF07F0D
:10132000130C30006FF0DFF013040000130A00000C
:10133000130C10006FF0DFEF13040000130AF07FAE
:10134000130C20006FF0DFEE33687901630E08069E
:101350006300090413050900EF109043930755FF3C
:101360001307C001634EF7021307D001130885FF6E
:101370003307F7403319090133D7EB0033692701ED
:1013800033980B011307D0C03305A7406FF01FEE51
:1013900013850B00EF10D03F130505026FF01FFC03
:1013A000130985FD33992B01130800006FF09FFD91
:1013B000336879016302080213880B001305F07F7C
:1013C000930730006FF0DFEA1309000013050000F7
:1013D000930710006FF0DFE9130900001305F07F99
:1013E000930720006FF0DFE86366990163922C4554
:1013F000636004451397FC0193571400931DF40197
:1014000093DC1C003364F700935B8801131589009B
:10141000B3EBAB0093DA0B0193850A00139B0B012E
:1014200013850C00131C8800135B0B01EF10902B2D
:1014300093050500130D050013050B00EF10D027D1
:101440001309050093850A0013850C00EF10102E78
:10145000131505019357040133E5A700130A0D0086
:10146000637E250133057501130AFDFF636875016D
:1014700063762501130AEDFF330575013309254114
:1014800093850A0013050900EF10D0259305050088
:10149000130D050013050B00EF101022930C05002F
:1014A00093850A0013050900EF1050281314040156
:1014B00013150501135404013364A40013070D0030
:1014C000637E9401330474011307FDFF63687401A4
:1014D000637694011307EDFF3304740193170A0137
:1014E000370E0100B3E7E70033089441930CFEFF89
:1014F00033F39701B37C9C0113D70701135D0C01F3
:101500001305030093850C00EF10101B93080500D2
:1015100093050D0013050300EF10101A13030500C7
:1015200093850C0013050700EF101019930E0500AA
:1015300093050D0013050700EF10101813D70801CD
:101540003303D301330767006374D7013305C50143
:10155000135407013304A400370501001305F5FFF8
:10156000337AA700131A0A01B3F8A800330A1A0144
:1015700063688800138907006314880463F24D05CB
:10158000B38D8D0133B78D01330777013308E80040
:101590001389F7FF63E60B0163940B0363E28D038A
:1015A00063668800631E040163FC4D01B38D8D01E9
:1015B0001389E7FFB3B78D01B38777013308F800CC
:1015C000338A4D4133048840B3B74D013304F440AE
:1015D0001308F0FF63808B1A93850A00130504003B
:1015E000EF105010930505002326A10013050B00F2
:1015F000EF10900C2324A10093850A00130504002A
:10160000EF10D0128326C1000327810013150501B6
:1016100093570A0133E5A700938D0600637EE5002A
:1016200033057501938DF6FF636875016376E500F8
:10163000938DE6FF330575013304E54093850A0079
:1016400013050400EF10100A930505002324A100E0
:1016500013050B00EF105006130B050093850A00CD
:1016600013050400EF10900C131A0A0103278100E0
:1016700013150501135A0A013365AA0093070700E1
:10168000637E6501330575019307F7FF6368750194
:10169000637665019307E7FF3305750193980D01A4
:1016A000B3E8F800139708011357070133036541A6
:1016B00093D708011305070093850C00EF10C07F36
:1016C0001308050093050D0013050700EF10C07EF9
:1016D0001307050093850C0013850700EF10C07DEC
:1016E000130E050093050D0013850700EF10C07C55
:1016F000935708013307C701B387E70063F6C701B3
:10170000370701003305E500370601001306F6FF31
:1017100093D6070133F7C700131707013378C800C2
:10172000B386A600330707016368D3006314D3248C
:10173000138808006300070433856B001388F8FFE3
:10174000636475036366D5006314D5226370EC028D
:1017500093171C0033BC8701B30B7C011388E8FF8F
:1017600033057501138C07006314D5006304EC0086
:10177000136818001387F93F635AE01093777800D5
:10178000638007029377F80093064000638AD700CE
:101790009306480033B8060133090901138806008F
:1017A0009317790063DA0700B70700FF9387F7FF05
:1017B0003379F900138709409307E07F63CAE7187C
:1017C000135838009317D901B3E7070113553900AF
:1017D0001315C5001377F77F131747018320C10442
:1017E000032481041355C5009394F4013365E50087
:1017F0003367950003290104832441048329C1032D
:10180000032A8103832A4103032B0103832BC10293
:10181000032C8102832C4102032D0102832DC1017F
:101820001385070093050700130101056780000079
:101830009389F9FF930D00006FF01FBD93840A0098
:1018400013890C001308040093070C0013072000F1
:101850006380E710130730006382E70E1307100060
:10186000E39AE7F013050000930700006F004009BA
:1018700093040B006FF09FFD370908001308000068
:1018800093040000930730006FF05FFC1305100015
:101890003305E54093078003E3C6A7FC9307F001F7
:1018A00063C4A7069389E941B31739013357A800E8
:1018B000B3193801B3E7E700B3393001B3E73701B3
:1018C0003355A90013F777006300070213F7F700F9
:1018D00093064000630AD70013874700B337F70029
:1018E0003305F5009307070013178500634A0706C1
:1018F0001317D50193D73700B367F7001355350099
:10190000130700006FF0DFEC930710FEB387E7408A
:1019100093060002B357F900130700006306D500D1
:101920009389E943331739013368070133380001DC
:10193000B3E70701130500006FF0DFF83705080073
:10194000930700001307F07F930400006FF05FE837
:1019500013050000930700001307F07F6FF05FE7A7
:101960001305000093070000130710006FF05FE6F7
:1019700093080800138808006FF09FDF130101FD32
:10198000232E310193D94501232481022322910280
:10199000232C4101232A5101232861019394C5007E
:1019A00023261102232021032326710193F9F97FB5
:1019B00013040500130B0600938A060093D4C40099
:1019C00013DAF5016384090A9307F07F6382F91043
:1019D0009357D50193943400B3E49700B707800080
:1019E000B3E4F40013193500938919C0930B000078
:1019F00013D54A011394CA001375F57F1354C4001C
:101A000093DAFA01630205109307F07F6302F5167B
:101A10009357DB011314340033E48700B7078000C9
:101A20003364F400130515C093173B00130700003F
:101A300093962B00B3E6E600B389A9009386F6FFE0
:101A40001306E00033485A0193881900636ED614D8
:101A500017260000130646BF93962600B386C600DD
:101A600083A60600B386C6006780060033E9A4009B
:101A7000630C09066380040413850400EF104051D1
:101A8000130755FF9307C00163CCE7029307D0010A
:101A9000130985FFB387E740B3942401B357F400DB
:101AA000B3E49700331924019309D0C0B389A94046
:101AB0006FF0DFF3EF10C04D130505026FF05FFC10
:101AC000930485FDB3149400130900006FF0DFFD4B
:101AD00033E9A40063020902130905009309F07FAA
:101AE000930B30006FF0DFF09304000093090000C7
:101AF000930B10006FF0DFEF930400009309F07F69
:101B0000930B20006FF0DFEEB3676401638E07066E
:101B10006300040413050400EF108047930655FF8B
:101B20009307C00163CED7021307D001930785FF47
:101B30003307D7403314F4003357EB003364870086
:101B4000B317FB001307D0C03305A7406FF01FEE9B
:101B500013050B00EF10C043130505026FF01FFCC7
:101B6000130485FD33148B00930700006FF09FFD75
:101B7000B36764016382070293070B001305F07FCC
:101B8000130730006FF0DFEA1304000013050000B4
:101B9000130710006FF0DFE9130400001305F07F56
:101BA000130720006FF0DFE8B70201001383F2FF94
:101BB000135F090193DF070133796900B3F7670009
:101BC0001305090093850700EF10002F930E050001
:101BD00093850F0013050900EF10002E130E05006A
:101BE0009385070013050F00EF10002D130A050061
:101BF00093850F0013050F00EF10002C13D70E0173
:101C0000330E4E013307C701930305006374470188
:101C1000B3035500337E6700B3FE6E00135A040110
:101C2000131E0E013374640093520701330EDE015C
:101C30001305090093050400EF100028930E05001A
:101C400093050A0013050900EF100027130705008C
:101C50009305040013050F00EF1000261303050081
:101C600093050A0013050F00EF10002593D60E010F
:101C700033076700B386E60063F6660037070100A6
:101C80003305E500B70A01001386FAFF13D70601F2
:101C9000B3F6C60093960601B3FECE00330FA7003D
:101CA000B38ED60113D70401B3F4C400B382D201BA
:101CB0001385040093850700EF1000201309050029
:101CC00093850F0013850400EF10001F1303050018
:101CD0009385070013050700EF10001E130B050086
:101CE00093850F0013050700EF10001D935709019E
:101CF00033036301B387670063F46701330555015C
:101D0000B70A01009386FAFF33F3D70013D6070111
:101D10003379D90013130301B30FA6003303230152
:101D20001385040093050400EF10001993070500C4
:101D300093050A0013850400EF10001893040500B2
:101D40009305040013050700EF10001713090500A1
:101D500093050A0013050700EF10001693D607013C
:101D6000B3842401B386960063F42601330555013C
:101D7000370601001306F6FF33F7C600B3F7C700B6
:101D800013170701B38272003307F700B3BED20105
:101D90003307E7013304D701B38262003306F4014D
:101DA00033B36200B30566003337E7013334D4013F
:101DB0003364870093D606013336F60133B36500EA
:101DC0003304D400336366003304640093979200B5
:101DD0003304A400B3E7C7011314940013D57501AD
:101DE000B337F00013DE7201139795003364A4003B
:101DF000B3E7C701B3E7E700131774006352071096
:101E000013D7170093F71700B367F7001317F40100
:101E1000B3E7E700135414009386F83F6356D00EDF
:101E200013F777006300070213F7F700130640006B
:101E3000630AC70013874700B337F7003304F40081
:101E40009307070013177400635A0700370700FF52
:101E50001307F7FF3374E400938608401307E07F0D
:101E60006346D71613D737009317D401B3E7E700BB
:101E7000135434001314C40013F7F67F13174701EB
:101E80001354C4003364E4001318F80133670401E9
:101E90008320C10203248102832441020329010219
:101EA0008329C101032A8101832A4101032B0101F6
:101EB000832BC1001385070093050700130101035D
:101EC0006780000013080A001384040093070900C8
:101ED00013870B0093062000630AD70E9306300089
:101EE000630CD70C93061000E318D7F2130400001C
:101EF000930700006F00800813880A006FF09FFDB1
:101F0000938809006FF05FF1130610003306D64086
:101F100013078003E34CC7FC1307F0016344C706B3
:101F20009388E84133171401B3D6C700B39717015C
:101F30003367D700B337F000B367F7003354C400FA
:101F400013F777006300070213F7F70093064000CA
:101F5000630AD70013874700B337F7003304F40050
:101F60009307070013178400634A07061317D40169
:101F700093D73700B367F70013543400930600007B
:101F80006FF05FEF130710FE3307D7409305000291
:101F90003357E400930600006306B6009388E843D5
:101FA000B3161401B3E7F600B337F000B367F700D8
:101FB000130400006FF0DFF83704080093070000F7
:101FC0009306F07F130800006FF0DFEA13040000AF
:101FD000930700009306F07F6FF0DFE91304000021
:101FE00093070000930610006FF0DFE8130101FD76
:101FF0002322910293547501232E3101232A51018A
:1020000023286101931A95002326110223248102BB
:1020100023202103232C4101232671012324810144
:102020002322910193F4F40F138B050093DA9A00A5
:102030009359F501638604089307F00F6382F40A4D
:10204000939A3A00B7070004B3EAFA00938414F8AD
:10205000930B000013557B0113149B001375F50FB0
:1020600013549400135BFB01630C05089307F00FF6
:102070006308F50A13143400B70700043364F4004E
:10208000130515F89307000013972B003367F7002B
:102090001307F7FF9306E00033C96901338AA440B0
:1020A00063E0E60A971600009386C65D13172700C3
:1020B0003307D700032707003307D700670007005F
:1020C000638A0A0213850A00EF00906C9307B5FF3C
:1020D0009304A0F8B39AFA00B384A4406FF05FF7BA
:1020E0009304F00F930B2000E3860AF6930B300065
:1020F0006FF05FF693040000930B10006FF09FF5F4
:10210000630A040213050400EF0090689307B5FF0B
:102110003314F4009307A0F83385A7406FF09FF6BF
:102120001305F00F93072000E30004F69307300037
:102130006FF09FF513050000930710006FF0DFF4B8
:10214000131B540063F68A12130AFAFF930400006B
:10215000935B0B013704010093850B001304F4FF1C
:1021600013850A00EF00105833748B0093050500A7
:10217000930C050013050400EF001054130C050028
:1021800093850B0013850A00EF00505A13150501C3
:1021900093D4040133E5A40093890C00637E850188
:1021A000330565019389FCFF6368650163768501EA
:1021B0009389ECFF33056501B304854193850B00DA
:1021C00013850400EF00105293050500130C050061
:1021D00013050400EF00504E930A050093850B0091
:1021E00013850400EF0090541315050113040C002F
:1021F000637E5501330565011304FCFF63686501C7
:10220000637655011304ECFF3305650193990901C9
:1022100033055541B3E989003335A00033E4A90003
:102220001307FA076356E00E93777400638A07007A
:102230009377F400930640006384D70013044400AE
:102240009317440063DA0700B70700F89387F7FF96
:102250003374F40013070A089307E00F1354340093
:1022600063D4E704130400001307F00F6F00C003EA
:102270009394FA0193DA1A006FF09FED1389090025
:1022800013840A0093870B0013072000E38CE7FCFC
:10229000130730006388E70C13071000E392E7F898
:1022A0001304000013070000131494001377F70FB2
:1022B00013177701135494001315F9013364E400E4
:1022C0003365A4008320C1020324810283244102D8
:1022D000032901028329C101032A8101832A4101C3
:1022E000032B0101832BC100032C8100832C4100AF
:1022F000130101036780000013090B006FF0DFF882
:102300003704400013090000930730006FF0DFF737
:1023100093071000B387E7401307B001E342F7F8D3
:102320001305EA09B357F4003314A40033348000D2
:1023300033E4870093777400638A07009377F4008F
:10234000130740006384E70013044400931754000C
:1023500013543400E3D807F41304000013071000EB
:102360006FF09FF4370440001307F00F13090000CB
:102370006FF09FF3130101FE23282101135975010A
:10238000232A910023263101232251019314950021
:10239000232E1100232C8100232441011379F90FEE
:1023A000938A050093D494009359F50163080908B2
:1023B0009307F00F6304F90A93943400B7070004FD
:1023C000B3E4F400130919F8130A000013D57A01D5
:1023D00013949A001375F50F1354940093DAFA01CD
:1023E000630E05089307F00F630AF50A131434000F
:1023F000B70700043364F400130515F893070000D1
:1024000013172A003367F7003309A9001307F7FFF2
:102410009306E00033C859019308190063E0E60A07
:10242000971600009386C629131727003307D70095
:10243000032707003307D70067000700638A0402F9
:1024400013850400EF00D0349307B5FF1309A0F8FB
:10245000B394F4003309A9406FF01FF71309F00F8C
:10246000130A2000E38404F6130A30006FF01FF60D
:1024700013090000130A10006FF05FF5630A0402ED
:1024800013050400EF00D0309307B5FF3314F400B8
:102490009307A0F83385A7406FF05FF61305F00FA0
:1024A00093072000E30E04F4930730006FF05FF50C
:1024B00013050000930710006FF09FF4B70E0100A2
:1024C000138EFEFF93DF040193570401B3F4C4019C
:1024D0003374C4011385040093050400EF00D01D7C
:1024E000130305009385070013850400EF00D01C3B
:1024F000130705009305040013850F00EF00D01BA0
:10250000130F05009385070013850F00EF00D01A05
:10251000935703013307E701B387E70063F4E7014B
:102520003305D50133F7C701131707013373C3010F
:10253000330767001314670093D707013334800013
:102540001357A701B387A700939767003367E40089
:1025500033E4E7009317440063DC07089357140043
:102560001374140033E487001387F8076356E008F8
:1025700093777400638A07009377F4009306400012
:102580006384D700130444009317440063DA070000
:10259000B70700F89387F7FF3374F4001387080830
:1025A0009307E00F1354340063D8E70A13040000C4
:1025B0001307F00F6F00400A13880900138404000A
:1025C00093070A0013072000E382E7FE1307300099
:1025D000638EE70613071000E398E7F81304000082
:1025E000130700006F00400713880A006FF09FFD7B
:1025F000930809006FF05FF793071000B387E74077
:102600001307B001E34CF7FC9388E809B357F400D3
:10261000331414013334800033E48700937774005B
:10262000638A07009377F400130740006384E70090
:10263000130444009317540013543400E3D207FAF0
:1026400013040000130710006F000001370440005E
:102650001307F00F13080000131494001377F70FFB
:1026600013177701135494003364E4001315F80131
:102670003365A4008320C101032481018324410127
:10268000032901018329C100032A8100832A410013
:10269000130101026780000037078000130101FF6A
:1026A0001307F7FF9356750113D87501B377A70089
:1026B000232291003377B7002320210193F6F60FF0
:1026C0001378F80F23261100232481001306F00F3E
:1026D0009354F501138906009397370013050800FA
:1026E00093D5F501131737006314C800631407006E
:1026F00093C5150033860641639E9516635CC0083A
:10270000631C0804630607341306F6FF631E060203
:10271000B387E7001385060013975700635C071023
:10272000130515001307F00F630EE5323707007E1F
:1027300093F617001307F7FF93D71700B3F7E700D7
:10274000B3E7D7006F00000F9305F00F639EB6004C
:102750001305F00F6F00000E9305F00FE38AB6FE2D
:10276000B70500043367B7009305B00163D6C50011
:10277000130710006FF0DFF9930500023355C7000F
:102780003386C5403317C7003337E0003367E500B1
:102790006FF01FF8630606063306D84063940602FE
:1027A000638C072A1306F6FF63160600B387E7005B
:1027B0006FF09FF69306F00F631ED8009307070093
:1027C0006FF01FF99306F00FE30AD8FEB706000476
:1027D000B3E7D7009306B00163D6C6009307100095
:1027E0006FF0DFFC93060002B386C640B3D5C70086
:1027F000B397D700B337F000B3E7F5006FF01FFBD6
:10280000138616001375E60F631A05046392060417
:102810006384072463000702B387E7001397570018
:10282000635A0700370700FC1307F7FFB3F7E70009
:102830001305100013F777006308072213F7F7005A
:10284000930640006302D722938747006F00C021A0
:10285000E38607F6E30E07EE6F0040179306F00FCE
:102860006300D620B387E70093D71700130506004F
:102870006FF05FFC6358C0086318080413850600F6
:10288000E30A07FA1306F6FF63120602B387E7406E
:1028900013975700E35007FA370400041304F4FFBA
:1028A00033F48700130905006F0080149305F00FBF
:1028B0001305F00FE380B6F89305B00163D2C502AB
:1028C000130710006F0040039305F00F1305F00F7E
:1028D000E382B6F6B70500043367B7006FF0DFFD9B
:1028E000930500023355C7003386C5403317C70030
:1028F0003337E0003367E500B387E7401385060010
:102900006FF01FF9630A06063306D8406398060283
:10291000638007081306F6FF63180600B307F74045
:10292000938405006FF0DFF69306F00F6310D80272
:1029300093070700938405006FF09FE19306F00F63
:10294000E308D8FEB7060004B3E7D7009306B0014A
:1029500063D6C600930710006FF05FFC9306000279
:10296000B386C64033D8C700B397D700B337F0005B
:10297000B367F8006FF09FFA138516001375E50F23
:10298000631E05046390060463980700630607024C
:10299000930707006F008001E30E07E8B386E74066
:1029A0001396560063580600B307F740938405005A
:1029B0006FF05FE863900612930700009304000035
:1029C0006F00800AE39807E8E31407F69304000019
:1029D000B70700021305F00F6F0000093384E740CA
:1029E0009316540063D406043304F740938405001F
:1029F00013050400EF00C0591305B5FF3314A400FC
:102A0000634E250333052541130515001307000206
:102A1000B357A4003305A7403314A4003334800017
:102A2000B3E78700130500006FF0DFE0E31204FC5A
:102A300093070000130500006FF05FF8B70700FC74
:102A40009387F7FF3305A940B377F4006FF09FDE5B
:102A5000138506006FF01FDE930707006FF09FDD00
:102A60001305F00F9307000013975700635E0700EC
:102A7000130515001307F00F6302E506370700FC86
:102A80001307F7FFB3F7E7001307F00F93D73700EB
:102A90006318E50063860700B70740009304000051
:102AA0001375F50F8320C1000324810093979700CD
:102AB0001317750113D597009394F4013365E5005E
:102AC00033659500032901008324410013010101AE
:102AD00067800000938706006FF0DFD59307000042
:102AE0006FF09FFA37068000135775019307F6FFC2
:102AF0001377F70F9305E007B3F7A7009356F50197
:102B000063F6E5049305D00963FAE5003705008014
:102B10001345F5FF3385A6006780000033E5C70045
:102B20009307500963DCE7001307A7F63315E500A8
:102B3000638006023305A0406780000093076009A8
:102B40003387E7403355E5006FF09FFE1305000023
:102B500067800000130101FF232611002324810058
:102B600023229100930705006304050E1357F541D6
:102B70003344A7003304E4409354F50113050400E3
:102B8000EF0000419307E009B387A74013076009EE
:102B90006342F704130780006356A700130585FFFF
:102BA0003314A4001314940093F7F70F939777014D
:102BB000135494001395F4013364F4003365A400B6
:102BC0008320C100032481008324410013010101FB
:102BD00067800000130790096350F7021307500045
:102BE0003307A7409306B5013357E4003314D400EC
:102BF0003334800033648700130750006356A70006
:102C00001307B5FF3314E400370700FC1307F7FF81
:102C1000937674003377E400638A06001374F4003B
:102C2000930640006304D40013074700931657002F
:102C300063DC0600B70700FC9387F7FF3377F700E4
:102C40009307F009B387A740135437006FF09FF53F
:102C500093040000130400006FF0DFF49357750134
:102C6000130101FF93F7F70F232481002322910022
:102C7000131495009354F5011385170023261100B2
:102C80001375E50F13549400630405041385073886
:102C9000935734001314D4019397C7001375F57F2D
:102CA0001315450193D7C700B3E7A7008320C100E0
:102CB00013050400032481009394F40133E7970083
:102CC0009305070083244100130101016780000080
:102CD00063940704E30204FC13050400EF00402B97
:102CE0009307A00063C2A7029307B000B387A74071
:102CF00013075501B357F4003314E4001307903859
:102D00003305A7406FF05FF9930755FFB317F40041
:102D1000130400006FF09FFE93070000630A040095
:102D200093573400370708001314D401B3E7E700C2
:102D30001305F07F6FF05FF61396C5001356C600BB
:102D400013D84501931736001378F87F1356D50131
:102D50003366F6009307180093F7E77F93D5F501E4
:102D6000131735006386070A930608C89307E00F18
:102D700063C2D70C6340D008930790FE63CCF61073
:102D8000B70780001305E0013366F6003305D54030
:102D90009307F00163C8A702130828C8B3170701F7
:102DA000B337F000331606013355A700B3E7C70069
:102DB000B367F5009306000013F777006300070878
:102DC0006F00C00D9307E0FFB386D7409307000262
:102DD000B356D600930800006306F500130828CA0E
:102DE000B3180601B3E7E800B337F000B3E7F60025
:102DF0006FF05FFC131565003335A0001316360025
:102E00009357D7013366C500B367F6006FF0DFFA5A
:102E1000B367E60063160800B337F0006FF09FF960
:102E20009306F00F638C070013163600B7070002F5
:102E30006FF09FFD930700009306F00F1397570064
:102E4000635E0700938616001307F00F6382E606A1
:102E5000370700FC1307F7FFB3F7E7001307F00F7E
:102E600093D737006398E60063860700B7074000F2
:102E7000930500009397970093F6F60F93967601CB
:102E800093D797009395F501B3E7D70033E5B700E3
:102E900067800000930710009306000013F7F70007
:102EA00013064000E30CC7F8938747006FF01FF943
:102EB000930700006FF09FFA13060500130500004A
:102EC00093F61500638406003305C50093D51500FD
:102ED00013161600E39605FE6780000063400506A2
:102EE00063C6050613860500930505001305F0FF6C
:102EF000630C060293061000637AB6006358C000A4
:102F00001316160093961600E36AB6FE130500002A
:102F100063E6C500B385C5403365D50093D616007A
:102F200013561600E39606FE6780000093820000A9
:102F3000EFF05FFB13850500678002003305A040BA
:102F400063D80500B305B0406FF0DFF9B305B040BA
:102F500093820000EFF01FF93305A0406780020064
:102F60009382000063CA0500634C0500EFF09FF7F1
:102F70001385050067800200B305B040E35805FEE5
:102F80003305A040EFF01FF63305B0406780020024
:102F9000B7070100637AF5029307F00FB3B7A700F4
:102FA00093973700130700023307F740B357F50034
:102FB0001705000013058574B307F50003C5070066
:102FC0003305A74067800000370700019307000121
:0C2FD000E36AE5FC930780016FF0DFFC72
:102FDC00130101FE93078000130501002320F1006B
:102FEC0093073001232E11002326F1002322010028
:102FFC0023240100EFD00F93EFD04F94EFD04F95D7
:10300C00B70702F01307300623A0E7009306F0FF82
:10301C003707010023A2D7041307270023A0E704D6
:10302C00EFD0CFB28320C1011305000013010102C0
:04303C0067800000A9
:103040004448525953544F4E452050524F475241D5
:103050004D2C20534F4D4520535452494E470000AC
:103060004468727973746F6E652042656E63686D33
:1030700061726B2C2056657273696F6E20322E312F
:1030800020284C616E67756167653A20432900000E
:1030900050726F6772616D20636F6D70696C6564EB
:1030A0002077697468202772656769737465722771
:1030B00020617474726962757465000050726F6784
:1030C00072616D20636F6D70696C656420776974DF
:1030D000686F75742027726567697374657227203D
:1030E000617474726962757465000000506C65618A
:1030F0007365206769766520746865206E756D62FA
:103100006572206F662072756E73207468726F75B9
:103110006768207468652062656E63686D61726BB4
:103120003A200000457865637574696F6E2073748A
:10313000617274732C2025642072756E732074681C
:10314000726F756768204468727973746F6E650A70
:1031500000000000457865637574696F6E20656EC8
:103160006473000046696E616C2076616C756573EE
:10317000206F6620746865207661726961626C6593
:1031800073207573656420696E20746865206265BC
:103190006E63686D61726B3A00000000496E745F87
:1031A000476C6F623A202020202020202020202001
:1031B0002025640A0000000020202020202020205C
:1031C00073686F756C642062653A20202025640A5C
:1031D00000000000426F6F6C5F476C6F623A202006
:1031E00020202020202020202025640A000000002C
:1031F00043685F315F476C6F623A202020202020B7
:10320000202020202025630A00000000202020200C
:103210002020202073686F756C642062653A20203E
:103220002025630A0000000043685F325F476C6F2F
:10323000623A202020202020202020202025630A00
:10324000000000004172725F315F476C6F625B3853
:103250005D3A2020202020202025640A0000000064
:103260004172725F325F476C6F625B385D5B375DE6
:103270003A2020202025640A000000002020202081
:103280002020202073686F756C642062653A2020CE
:10329000204E756D6265725F4F665F52756E73206A
:1032A0002B203130000000005074725F476C6F6259
:1032B0002D3E000020205074725F436F6D703A20E5
:1032C00020202020202020202025640A000000004B
:1032D000202020202020202073686F756C642062DD
:1032E000653A20202028696D706C656D656E74618B
:1032F00074696F6E2D646570656E64656E74290007
:10330000202044697363723A20202020202020204E
:10331000202020202025640A000000002020456E87
:10332000756D5F436F6D703A202020202020202093
:103330002025640A000000002020496E745F436F5E
:103340006D703A2020202020202020202025640A93
:103350000000000020205374725F436F6D703A20AC
:1033600020202020202020202025730A000000009B
:10337000202020202020202073686F756C6420623C
:10338000653A2020204448525953544F4E4520500E
:10339000524F4752414D2C20534F4D4520535452CC
:1033A000494E47004E6578745F5074725F476C6F8A
:1033B000622D3E00202020202020202073686F7581
:1033C0006C642062653A20202028696D706C656D00
:1033D000656E746174696F6E2D646570656E646589
:1033E0006E74292C2073616D652061732061626F9A
:1033F00076650000496E745F315F4C6F633A202040
:1034000020202020202020202025640A0000000009
:10341000496E745F325F4C6F633A20202020202079
:10342000202020202025640A00000000496E745FDF
:10343000335F4C6F633A2020202020202020202062
:103440002025640A00000000456E756D5F4C6F63B7
:103450003A20202020202020202020202025640A1F
:10346000000000005374725F315F4C6F633A20209C
:1034700020202020202020202025730A000000008A
:10348000202020202020202073686F756C6420622B
:10349000653A2020204448525953544F4E452050FD
:1034A000524F4752414D2C203127535420535452F0
:1034B000494E47005374725F325F4C6F633A20206D
:1034C00020202020202020202025730A000000003A
:1034D000202020202020202073686F756C642062DB
:1034E000653A2020204448525953544F4E452050AD
:1034F000524F4752414D2C2032274E4420535452B4
:10350000494E47004D656173757265642074696D3D
:103510006520746F6F20736D616C6C20746F206F09
:10352000627461696E206D65616E696E6766756C47
:1035300020726573756C747300000000506C6561D7
:10354000736520696E637265617365206E756D6267
:103550006572206F662072756E730000436C6F6336
:103560006B206379636C65733D2564200A0000005D
:10357000444D49505320706572204D687A3A20209E
:10358000202020202020202020202020202020203B
:1035900020202020202020202020202000000000AB
:1035A00025642E00256400004448525953544F4E60
:1035B000452050524F4752414D2C20312753542023
:1035C000535452494E4700004448525953544F4EA9
:1035D000452050524F4752414D2C2032274E442017
:1035E000535452494E4700004448525953544F4E89
:1035F000452050524F4752414D2C203327524420F2
:10360000535452494E47000048E3FFFF5CE2FFFF7E
:1036100068E2FFFF5CE2FFFF34E3FFFF5CE2FFFFD5
:1036200068E2FFFF48E3FFFF48E3FFFF34E3FFFFEB
:1036300068E2FFFF34E2FFFF34E2FFFF34E2FFFF06
:1036400070E2FFFF90E8FFFF90E8FFFFB4E8FFFFA4
:1036500084E8FFFF84E8FFFF74E9FFFFB4E8FFFFA1
:1036600084E8FFFF74E9FFFF84E8FFFFB4E8FFFF91
:1036700080E8FFFF80E8FFFF80E8FFFF74E9FFFFBD
:10368000E4EBFFFF20ECFFFF78ECFFFF20ECFFFFF7
:10369000E4ECFFFF20ECFFFF78ECFFFFE4EBFFFF23
:1036A000E4EBFFFFE4ECFFFF78ECFFFFFCEBFFFF38
:1036B000FCEBFFFFFCEBFFFF80ECFFFF08EFFFFFE1
:1036C00008EFFFFF2CEFFFFF00EFFFFF00EFFFFF12
:1036D00090EFFFFF2CEFFFFF00EFFFFF90EFFFFFEA
:1036E00000EFFFFF2CEFFFFFFCEEFFFFFCEEFFFF04
:1036F000FCEEFFFF90EFFFFF000102020303030354
:103700000404040404040404050505050505050571
:103710000505050505050505060606060606060651
:103720000606060606060606060606060606060639
:103730000606060606060606070707070707070721
:103740000707070707070707070707070707070709
:1037500007070707070707070707070707070707F9
:1037600007070707070707070707070707070707E9
:1037700007070707070707070808080808080808D1
:1037800008080808080808080808080808080808B9
:1037900008080808080808080808080808080808A9
:1037A0000808080808080808080808080808080899
:1037B0000808080808080808080808080808080889
:1037C0000808080808080808080808080808080879
:1037D0000808080808080808080808080808080869
:1037E0000808080808080808080808080808080859
:0837F000080808080808080891
:1037F8000000000080842E41000000C00B5AF641F2
:0C3808005ED0B24F00F48A480000C842B5
:040000058000000077
:00000001FF
