:1000000041A10100130000001300000013000000D4
:1000100023203020232210202324202023263020B8
:1000200023284020232A5020232C6020232E7020B8
:1000300023208022232290222324A0222326B022C0
:100040002328C022232AD022232CE022232EF02290
:100050002320002523221025232420252326302594
:1000600023284025232A5025232C6025232E702564
:1000700023208027232290272324A0272326B0276C
:100080002328C027232AD027232CE027232EF0273C
:100090003701000013010148370500001305052052
:1000A00093050200EF00C062930500206303B500D2
:1000B00002908321002083204020032180200322FE
:1000C000002183224021032380218323C021032494
:1000D000002283244022032580228325C022032678
:1000E000002383264023032780238327C02303285C
:1000F000002483284024032980248329C024032A40
:100100000025832A4025032B8025832BC025032C23
:100110000026832C4026032D8026832DC026032E07
:100120000027832E4027032F8027832FC0270B0013
:10013000000413000000130000001300000013006F
:100140000000130000001300000013000000130063
:100150000000130000001300000013000000130053
:100160000000130000001300000013000000130043
:100170000000130000001300000013000000130033
:100180000000130000001300000013000000130023
:100190000000130000001300000013000000130013
:1001A0000000130000001300000013000000130003
:1001B00000001300000013000000130000001300F3
:1001C00000001300000013000000130000001300E3
:1001D00000001300000013000000130000001300D3
:1001E00000001300000013000000130000001300C3
:1001F00000001300000013000000130000000100C5
:1002000000000000000000000000000000000000EE
:1002100000000000000000000000000000000000DE
:1002200000000000000000000000000000000000CE
:1002300000000000000000000000000000000000BE
:10048000930000001301000093010000130200001C
:100490009302000013030000930300001304000004
:1004A00093040000130500009305000013060000EC
:1004B00093060000130700009307000013080000D4
:1004C000930800001309000093090000130A0000BC
:1004D000930A0000130B0000930B0000130C0000A4
:1004E000930C0000130D0000930D0000130E00008C
:1004F000930E0000130F0000930F0000370102005D
:10050000EF00A05137010200B7C1ADDE9381F1EEDB
:100510001382010037050010930540041306F00410
:100520009306E004130750049307A0000CC110C108
:1005300014C118C11CC137050020B7D55B079385CE
:1005400055D10CC102903305B50282803315B50236
:1005500082803325B50282803335B50282803345EF
:10056000B50282803355B50282803365B502828040
:100570003375B5028280000000000000000000001A
:10058000000000000000000000000000000000006B
:10059000000000000000000000000000000000005B
:1005A000000000000000000000000000000000004B
:1005B000000000000000000000000000000000003B
:1005C000000000000000000000000000000000002B
:1005D000000000000000000000000000000000001B
:1005E000000000000000000000000000000000000B
:1005F00000000000000000000000000000000000FB
:1006000000000000000000000000000000000000EA
:1006100000000000000000000000000000000000DA
:1006200000000000000000000000000000000000CA
:1006300000000000000000000000000000000000BA
:1006400000000000000000000000000000000000AA
:10065000000000000000000000000000000000009A
:10066000000000000000000000000000000000008A
:10067000000000000000000000000000000000007A
:10068000000000000000000000000000000000006A
:10069000000000000000000000000000000000005A
:1006A000000000000000000000000000000000004A
:1006B000000000000000000000000000000000003A
:1006C000000000000000000000000000000000002A
:1006D0005D71A6C2CAC052DC86C6A2C44EDE56DA1E
:1006E0005AD85ED662D466D26AD06ECE93F46500D4
:1006F0002A892E8ABDC41841937617009307C7FF35
:1007000099C29307D7FF03D407000D47137634002F
:100710006316E60083D72700C2075D8C9379340007
:100720009387D9FFB337F000638DD70237C5000038
:100730001305C5C1B12C03250900A1455D2C37C5A2
:100740000000130585C5A9248D47A1456383F900E1
:1007500091452285792C37C50000130505CA0D2C5B
:10076000029093770A0199C73167832747D8850795
:100770002322F7D893770A0299C73167832707D8CE
:1007800085072320F7D893771A0099C73167832705
:10079000C7D78507232EF7D663860414832709005D
:1007A00013F71700938AC7FF19C3938AD7FF03D49F
:1007B0000A008D47137734006316F70083D72A00A9
:1007C000C2075D8CB7C40000138504CAD122B7C923
:1007D0000000138549C66D2A93772A0095C7B7078D
:1007E0001000938737076306F400A5678907631B2A
:1007F000F41037C50000130545CA592AA14556858E
:10080000CD2A138504CA6922137A4A00630B0A02AF
:1008100037C50000130545CEA52AA1455685D12A26
:1008200037C500001305C5CDA522937734000D47C9
:10083000A1456383E70091452285652A138504CA93
:10084000812A37CB0000814AA54C4D4DB7CD000021
:10085000130B4BC1938704CA5684014A754C8D4BC8
:100860003EC66317040C13854DD01D229317240038
:10087000CA978843A145B52A324563037A015A8550
:10088000012A050A91472104E31DFAFC850AA147C4
:10089000E392FAFC138549C6E52837C50000130525
:1008A000C5D0FD20B16703A547D8E528138504CA44
:1008B000C52037C50000130545D3D928B16703A566
:1008C00007D8C520138504CAE12037C500001305E9
:1008D000C5D57D28B16703A5C7D7E120138504CA14
:1008E00045280290B64026444A8596440649F25966
:1008F000625AD25A425BB25B225C925C025DF24D5C
:100900006161828037C50000130505CC5120A145E7
:100910005685C52037C500001305C5CD95289377AA
:1009200034000D47A1456383E70091452285C9BD89
:100930001305800763CF8C0081281305040313750A
:10094000F50F9920130500028120130500022D28C0
:1009500031BF634B8D000D2813051003352013059F
:1009600064021375F50FCDB763498C003128130568
:10097000200319281305C401EDB7392013053003EE
:10098000212013052401F1BFB707001088C382801E
:10099000370700108347050091E3828005051CC3DB
:1009A000D5BF011122CC400026CA4AC806CEAA846F
:1009B00022899DE063022403370700107D148347DA
:1009C0000400938707031CC3E31A24FFF240624428
:1009D000D244424905618280A9452685EFB0401D79
:1009E0000504A30FA4FEA9452685EFB0E017AA844D
:1009F000C9B7FD1537C700008A051307C7D9B70661
:100A0000001063D305008280B357B500BD8BBA9741
:100A100083C70700F1159CC2EDB737C50000130569
:100A200005DBBDB7411122C426C206C6A5472A84EC
:100A3000AE8463C7A70037C50000130505DC893FF6
:100A400022858537930764FF2547637CF706A94510
:100A50002285EFB020198947630BF5048D47630D9C
:100A6000F5048547631FF50437C50000130545DC11
:100A7000053737C50000130545DD193F26851537B5
:100A800037C50000130505DE21373167832707E0EE
:100A9000B240139557003E95218D9317550022447F
:100AA0003E95258D2320A7E092444101828037C5E1
:100AB0000000130585DC6DBF37C500001305C5DCDC
:100AC00045BF37C50000130505DD5DB77971856742
:100AD00026D2938757500545B164894522D44AD020
:100AE00052CC56CA5AC806D64ECE5EC623A0F4E0F3
:100AF00031690D3F01440945130949E0054A130BCB
:100B00002008930A0004135754400A074A971843D1
:100B1000B3178A00F98F9DEF931914008D09CE85C4
:100B2000930B15000137131724001907937717004B
:100B300099CF9307D7FF93D61740634CEB00998763
:100B40008A07CA979043B316DA00D18E94C34E97A2
:100B5000F1BF5E850504E31854FB37C5000013059B
:100B600045DE3D3503A504E0A145613503A704E05A
:100B7000B7A772179387F7486311F7022254B25050
:100B800092540259F249624AD24A424BB24B37C59B
:100B90000000130505DF4561E5BB37C500001305FF
:100BA00085DFFD330290B250225492540259F2492B
:100BB000624AD24A424BB24B45618280316703257B
:100BC000C7E59317D500A98F13D51701A98F1395E2
:100BD00057003D8D232EA7E482801D71CAC837C9F6
:100BE0000000CEC6D6C26AD86ED686CEA2CCA6CA21
:100BF000D2C4DAC05EDE62DC66DA8149B70D0080FD
:100C0000CA8A37CD00005D3F2A844D3F8547AA84BC
:100C1000638EF91663CC3715638D0916B7C70000CC
:100C20001385C7E0B533135AF441A1455285D1333A
:100C3000B7CB000013858BE1A13BA1452285553B35
:100C400037C500001305C5E1A13313DBF441A1450D
:100C50005A85453313858BE1253BA1452685513BBC
:100C600029451D3337C50000130505E21533A68558
:100C70002285EFF05F8DA1452ACEA53B1305C9E281
:100C8000013BA6852285EFF07F8CA1452ACC9533C8
:100C90001305C9E2F539A6852285EFF09F8BA145A2
:100CA0002ACA813B1305C9E2E531A6852285EFF00A
:100CB000BF8AA1452AC8353B2945F93137C500000F
:100CC000130505E3F131A6852285EFA03060A1452B
:100CD0002AC605331305C9E265392686DA862285D8
:100CE000D285EFA0F060AE8C6685A145193313055F
:100CF000C9E27939268681462285D285EFA0505FE8
:100D00002E8C6285A145F5311305C9E25131268645
:100D1000814622858145EFA0B05DAE8B5E85A14501
:100D2000C9391305C9E2AD31B2487243631B1301DF
:100D3000624863189801524763158701C247638E62
:100D4000770537C500001305C5E399310290F640D9
:100D50006644D6444649B649264A964A064BF25B53
:100D6000625CD25C425DB25D256182808947638BA3
:100D7000F9008D47E394F9EAB707008093C7F7FFBE
:100D80007D8C19A03364B401814449BD8144014480
:100D900071B5FD543704008051B513050DDFCD3E0C
:100DA00037C50000130545E4E536A6852285EFF03A
:100DB0000FFBA1452AC635391305C9E2D13EA685E8
:100DC0002285EFF02FFAA1452AC825311305C9E283
:100DD000C136A6852285EFF04FF9A1452ACA1139FF
:100DE0001305C9E27536A6852285EFF06FF8A14597
:100DF0002ACC01312945493E37C50000130505E5D8
:100E0000413EFD5C81C82686DA862285D285EF9038
:100E1000303AAA8CA1456685E93E1385CAE28D3E2B
:100E20007D5C81C82686814622858145EFA0C0452C
:100E30002A8CA1456285753E1385CAE2913EA28B3C
:100E400081C82686DA862285D285EF90707EAA8BAD
:100E50005E85A145793E1385CAE21D3E81C8228583
:100E6000268681468145EFA070052A84A14522850A
:100E700049361385CAE2293EB247E394FCECC247E7
:100E8000E311FCECD247E39EFBEAE247E31BF4EA02
:100E900013050DDFF53C8509BD47E396F9D645BD41
:100EA00039714ED652D406DE22DC26DA4AD856D222
:100EB000AA892E8A9307000319E2930700028A8405
:100EC00013F9F70FA68A268463930902634140054C
:100ED000930400021309E002631E5403F2506254AB
:100EE000D2544259B259225A925A21618280A9455C
:100EF0004E85EFA0F04B130505032380A4004E851B
:100F0000A945EFA07046AA897D1A85046DBF23808C
:100F10002401F5B78347F4FF639897008347E4FF04
:100F200063949700A30F24FF7D1403450400EFF0A2
:100F3000BFA55DB7411106C622C426C2732400C0F6
:100F4000F32420C037C50000130505E6EFF05FA4C9
:100F50000146A1452285A93737C50000130585E75D
:100F6000EFF01FA30146A14526851D3F37C50000B0
:100F7000130505E9EFF0DFA1A6852285EFA0D03E9D
:100F800001468145313F37C50000130585E9EFF083
:100F90003FA01315140022950E052295A6850A057B
:100FA000EFA0903C93054006EFA090400546894590
:100FB000C53D2244B240924437C50000130505CA1E
:100FC00041016FF0FF9C000037150000130585FEFE
:100FD0003706001083050500638C05002320B6004A
:100FE000130515006FF01FFF786F72690000000095
:100FF0009305E0022320B6002320B600B710FF00BF
:10100000938000F093C1F0F0B7FE00FF938EFE00D6
:10101000130E20006396D11DB710F00F938000FFD0
:1010200093C1000FB71EF00F938E0EF0130E300019
:101030006398D11BB710FF009380F08F93C1F070BD
:10104000B71EFF00938E0EFF130E4000639AD11956
:10105000B7F00FF09380F00093C1000FB7FE0FF0D0
:10106000938EFE0F130E5000639CD117B7F000FF54
:101070009380007093C0F070B7FE00FF938EFE0067
:10108000130E6000639ED01513020000B710F00F1E
:10109000938000FF93C1000F13830100130212001D
:1010A00093022000E31452FEB71EF00F938E0EF051
:1010B000130E70006316D31313020000B710FF0065
:1010C0009380F08F93C1F070130000001383010030
:1010D0001302120093022000E31252FEB71EFF001B
:1010E000938E0EFF130E8000631CD30F13020000BB
:1010F000B7F00FF09380F00093C1000F13000000D1
:101100001300000013830100130212009302200059
:10111000E31052FEB7FE0FF0938EFE0F130E9000F9
:101120006310D30D13020000B710F00F938000FF7F
:1011300093C1000F1302120093022000E31652FE27
:10114000B71EF00F938E0EF0130EA000639AD10914
:1011500013020000B710FF009380F0FF130000009F
:1011600093C1F0001302120093022000E31452FE18
:10117000B71EFF00938E0EFF130EB0006392D107CF
:1011800013020000B7F00FF09380F000130000008E
:101190001300000093C1000F1302120093022000FD
:1011A000E31252FEB7FE0FF0938EFE0F130EC00037
:1011B0006398D1039340000F930E000F130ED000DD
:1011C0006390D003B700FF009380F00F13C0F0705E
:1011D000930E0000130EE0006314D001631AC003E5
:1011E0003705001093055004130620059306F004FC
:1011F0001307A0002320B5002320C5002320C5002D
:101200002320D5002320C5002320E5007300100013
:10121000370500109305F0041306B0049306A000F0
:101220002320B5002320C5002320D5006FF08FAD0B
:101230003715000013050525370600108305050046
:10124000638A05002320B600130515006FF01FFF09
:101250006F7200009305E0022320B6002320B60041
:10126000B70001FF938000F037110F0F1301F1F069
:10127000B3E12000B70E10FF938EFEF0130E200096
:101280006392D14BB710F00F938000FF37F1F0F06D
:101290001301010FB3E12000B70EF1FF938E0EFF93
:1012A000130E30006390D149B700FF009380F00F18
:1012B00037110F0F1301F1F0B3E12000B71EFF0F3C
:1012C000938EFEFF130E4000639ED145B7F00FF0E2
:1012D0009380F00037F1F0F01301010FB3E120002B
:1012E000B7FEFFF0938EFE0F130E5000639CD143A8
:1012F000B70001FF938000F037110F0F1301F1F0D9
:10130000B3E02000B70E10FF938EFEF0130E6000C6
:10131000639AD041B70001FF938000F037110F0F9F
:101320001301F1F033E12000B70E10FF938EFEF0B1
:10133000130E70006318D13FB70001FF938000F0D7
:10134000B3E01000B70E01FF938E0EF0130E800075
:10135000639AD03D13020000B70001FF938000F0B4
:1013600037110F0F1301F1F0B3E1200013830100D7
:101370001302120093022000E31052FEB70E10FF7A
:10138000938EFEF0130E9000631ED33913020000FB
:10139000B710F00F938000FF37F1F0F01301010F49
:1013A000B3E12000130000001383010013021200B8
:1013B00093022000E31E52FCB70EF1FF938E0EFF46
:1013C000130EA0006310D33713020000B700FF0014
:1013D0009380F00F37110F0F1301F1F0B3E12000EC
:1013E0001300000013000000138301001302120019
:1013F00093022000E31C52FCB71EFF0F938EFEFFEA
:10140000130EB0006310D33313020000B70001FFC6
:10141000938000F037110F0F1301F1F0B3E12000BA
:101420001302120093022000E31252FEB70E10FFC7
:10143000938EFEF0130EC0006396D12F13020000AE
:10144000B710F00F938000FF37F1F0F01301010F98
:1014500013000000B3E120001302120093022000E9
:10146000E31052FEB70EF1FF938E0EFF130ED00065
:10147000639AD12B13020000B700FF009380F00F96
:1014800037110F0F1301F1F01300000013000000DB
:10149000B3E120001302120093022000E31E52FC6D
:1014A000B71EFF0F938EFEFF130EE000639CD12743
:1014B00013020000B70001FF938000F0130000004A
:1014C00037110F0F1301F1F0B3E1200013021200E6
:1014D00093022000E31052FEB70E10FF938EFEF031
:1014E000130EF0006390D12513020000B710F00F27
:1014F000938000FF1300000037F1F0F01301010F9B
:1015000013000000B3E12000130212009302200038
:10151000E31E52FCB70EF1FF938E0EFF130E000177
:101520006392D12113020000B700FF009380F00FF7
:10153000130000001300000037110F0F1301F1F02A
:10154000B3E120001302120093022000E31E52FCBC
:10155000B71EFF0F938EFEFF130E10016394D11D73
:101560001302000037110F0F1301F1F0B70001FF54
:10157000938000F0B3E120001302120093022000D8
:10158000E31252FEB70E10FF938EFEF0130E2001F1
:10159000639AD1191302000037F1F0F01301010F23
:1015A000B710F00F938000FF13000000B3E120009C
:1015B0001302120093022000E31052FEB70EF1FF57
:1015C000938E0EFF130E3001639ED115130200009F
:1015D00037110F0F1301F1F0B700FF009380F00FE8
:1015E0001300000013000000B3E1200013021200FA
:1015F00093022000E31E52FCB71EFF0F938EFEFFE6
:10160000130E40016390D1131302000037110F0F26
:101610001301F1F013000000B70001FF938000F008
:10162000B3E120001302120093022000E31052FEE7
:10163000B70E10FF938EFEF0130E50016394D10F7E
:101640001302000037F1F0F01301010F1300000046
:10165000B710F00F938000FF13000000B3E12000EB
:101660001302120093022000E31E52FCB70EF1FF9A
:10167000938E0EFF130E60016396D10B13020000D0
:1016800037110F0F1301F1F01300000013000000D9
:10169000B700FF009380F00FB3E1200013021200A7
:1016A00093022000E31E52FCB71EFF0F938EFEFF35
:1016B000130E70016398D107B70001FF938000F00B
:1016C00033611000B70E01FF938E0EF0130E8001F0
:1016D000631AD105B700FF009380F00F33E10000DB
:1016E000B70EFF00938EFE0F130E9001631CD10303
:1016F000B3600000930E0000130EA0016394D003AA
:10170000B7101111938010113721222213012122C9
:1017100033E02000930E0000130EB0016314D001DB
:10172000631AC00337050010930550041306200503
:101730009306F0041307A0002320B5002320C50062
:101740002320C5002320D5002320C5002320E50049
:1017500073001000370500109305F0041306B00461
:101760009306A0002320B5002320C5002320D50028
:101770006FE05FD937150000130545793706001073
:1017800083050500638A05002320B60013051500B4
:101790006FF01FFF786F72009305E0022320B60000
:1017A0002320B600B70001FF938000F037110F0F20
:1017B0001301F1F0B3C12000B7FE0FF0938EFE00CD
:1017C000130E20006390D14BB710F00F938000FFF1
:1017D00037F1F0F01301010FB3C12000B70E01FF84
:1017E000938E0EF0130E3000639ED147B700FF00BA
:1017F0009380F00F37110F0F1301F1F0B3C12000E8
:10180000B71EF00F938E0EFF130E4000639CD14560
:10181000B7F00FF09380F00037F1F0F01301010FF3
:10182000B3C12000B70EFF00938EFE0F130E5000C1
:10183000639AD143B70001FF938000F037110F0F77
:101840001301F1F0B3C02000B7FE0FF0938EFE003D
:10185000130E60006398D041B70001FF938000F041
:1018600037110F0F1301F1F033C12000B7FE0FF055
:10187000938EFE00130E70006316D13FB70001FF78
:10188000938000F0B3C01000930E0000130E800090
:10189000639AD03D13020000B70001FF938000F06F
:1018A00037110F0F1301F1F0B3C1200013830100B2
:1018B0001302120093022000E31052FEB7FE0FF055
:1018C000938EFE00130E9000631ED33913020000A6
:1018D000B710F00F938000FF37F1F0F01301010F04
:1018E000B3C1200013000000138301001302120093
:1018F00093022000E31E52FCB70E01FF938E0EF000
:10190000130EA0006310D33713020000B700FF00CE
:101910009380F00F37110F0F1301F1F0B3C12000C6
:1019200013000000130000001383010013021200D3
:1019300093022000E31C52FCB71EF00F938E0EFFA3
:10194000130EB0006310D33313020000B70001FF81
:10195000938000F037110F0F1301F1F0B3C1200095
:101960001302120093022000E31252FEB7FE0FF0A2
:10197000938EFE00130EC0006396D12F1302000059
:10198000B710F00F938000FF37F1F0F01301010F53
:1019900013000000B3C120001302120093022000C4
:1019A000E31052FEB70E01FF938E0EF0130ED0001F
:1019B000639AD12B13020000B700FF009380F00F51
:1019C00037110F0F1301F1F0130000001300000096
:1019D000B3C120001302120093022000E31E52FC48
:1019E000B71EF00F938E0EFF130EE000639CD127FD
:1019F00013020000B70001FF938000F01300000005
:101A000037110F0F1301F1F0B3C1200013021200C0
:101A100093022000E31052FEB7FE0FF0938EFE00FB
:101A2000130EF0006390D12513020000B710F00FE1
:101A3000938000FF1300000037F1F0F01301010F55
:101A400013000000B3C12000130212009302200013
:101A5000E31E52FCB70E01FF938E0EF0130E000131
:101A60006392D12113020000B700FF009380F00FB2
:101A7000130000001300000037110F0F1301F1F0E5
:101A8000B3C120001302120093022000E31E52FC97
:101A9000B71EF00F938E0EFF130E10016394D11D2D
:101AA0001302000037110F0F1301F1F0B70001FF0F
:101AB000938000F0B3C120001302120093022000B3
:101AC000E31252FEB7FE0FF0938EFE00130E2001BC
:101AD000639AD1191302000037F1F0F01301010FDE
:101AE000B710F00F938000FF13000000B3C1200077
:101AF0001302120093022000E31052FEB70E01FF02
:101B0000938E0EF0130E3001639ED1151302000068
:101B100037110F0F1301F1F0B700FF009380F00FA2
:101B20001300000013000000B3C1200013021200D4
:101B300093022000E31E52FCB71EF00F938E0EFF9F
:101B4000130E40016390D1131302000037110F0FE1
:101B50001301F1F013000000B70001FF938000F0C3
:101B6000B3C120001302120093022000E31052FEC2
:101B7000B7FE0FF0938EFE00130E50016394D10F49
:101B80001302000037F1F0F01301010F1300000001
:101B9000B710F00F938000FF13000000B3C12000C6
:101BA0001302120093022000E31E52FCB70E01FF45
:101BB000938E0EF0130E60016396D10B130200009A
:101BC00037110F0F1301F1F0130000001300000094
:101BD000B700FF009380F00FB3C120001302120082
:101BE00093022000E31E52FCB71EF00F938E0EFFEF
:101BF000130E70016398D107B70001FF938000F0C6
:101C000033411000B70E01FF938E0EF0130E8001CA
:101C1000631AD105B700FF009380F00F33C10000B5
:101C2000B70EFF00938EFE0F130E9001631CD103BD
:101C3000B3400000930E0000130EA0016394D00384
:101C4000B710111193801011372122221301212284
:101C500033C02000930E0000130EB0016314D001B6
:101C6000631AC003370500109305500413062005BE
:101C70009306F0041307A0002320B5002320C5001D
:101C80002320C5002320D5002320C5002320E50004
:101C900073001000370500109305F0041306B0041C
:101CA0009306A0002320B5002320C5002320D500E3
:101CB0006FE05F8537250000130545CD370600101E
:101CC00083050500638A05002320B600130515006F
:101CD0006FF01FFF736800009305E0022320B60039
:101CE0002320B60097A000009380801B1301A00A58
:101CF0002390200083910000930EA00A130E200071
:101D0000639ED14597A000009380801937B1FFFFF3
:101D1000130101A02391200083912000B7BEFFFF93
:101D2000938E0EA0130E3000639AD14397A000004B
:101D3000938000173711EFBE130101AA23922000F0
:101D400083A14000B71EEFBE938E0EAA130E400073
:101D50006396D14197A000009380801437A1FFFFC4
:101D60001301A1002393200083916000B7AEFFFF11
:101D7000938EAE00130E50006392D13F97A00000E7
:101D80009380E0121301A00A239D20FE8391A0FFFF
:101D9000930EA00A130E60006392D13D97A000003D
:101DA0009380E01037B1FFFF130101A0239E20FEB6
:101DB0008391C0FFB7BEFFFF938E0EA0130E70007D
:101DC000639ED13997A000009380600E3711000008
:101DD000130101AA239F20FE8391E0FFB71E00009C
:101DE000938E0EAA130E8000639AD13797A000003D
:101DF0009380E00B37A1FFFF1301A1002390200087
:101E000083910000B7AEFFFF938EAE00130E9000DB
:101E10006396D13597A00000938080093751341222
:101E200013018167138200FE2310220283910000B8
:101E3000B75E0000938E8E67130EA0006390D133BF
:101E400097A000009380C00637310000130181097C
:101E50009380B0FFA393200017A200001302620535
:101E600083110200B73E0000938E8E09130EB0005E
:101E70006396D12F130EC00013020000B7D0FFFFEE
:101E80009380D0CD17A10000130181012310110010
:101E900083110100B7DEFFFF938EDECD6390D12D5D
:101EA0001302120093022000E31A52FC130ED0001A
:101EB00013020000B7C0FFFF9380D0CC17A1000031
:101EC000130101FE130000002311110083112100F2
:101ED000B7CEFFFF938EDECC6392D129130212009E
:101EE00093022000E31852FC130EE00013020000DE
:101EF000B7C0FFFF9380C0BC17A10000130141FAD7
:101F00001300000013000000231211008311410090
:101F1000B7CEFFFF938ECEBC6392D1251302120081
:101F200093022000E31652FC130EF000130200008F
:101F3000B7B0FFFF9380C0BB1300000017A10000E3
:101F4000130101F62313110083116100B7BEFFFFD7
:101F5000938ECEBB6394D121130212009302200012
:101F6000E31852FC130E000113020000B7B0FFFF8C
:101F70009380B0AB1300000017A10000130141F2E1
:101F8000130000002314110083118100B7BEFFFF6E
:101F9000938EBEAB6394D11D1302120093022000F6
:101FA000E31652FC130E100113020000B7E0FFFF0E
:101FB0009380B0AA130000001300000017A10000D6
:101FC000130101EE231511008311A100B7EEFFFFED
:101FD000938EBEAA6394D1191302120093022000BB
:101FE000E31652FC130E20011302000017A100009B
:101FF000130101EBB7200000938030232310110060
:1020000083110100B72E0000938E3E236398D115F3
:102010001302120093022000E31A52FC130E300147
:102020001302000017A10000130181E7B7100000A0
:10203000938030221300000023111100831121002E
:10204000B71E0000938E3E22639AD1111302120034
:1020500093022000E31852FC130E4001130200000B
:1020600017A100001301C1E3B710000093802012F4
:10207000130000001300000023121100831141001F
:10208000B71E0000938E2E12639AD10D1302120018
:1020900093022000E31652FC130E500113020000BD
:1020A00017A100001301C1DF1300000093002011ED
:1020B0002313110083116100930E20116390D10B43
:1020C0001302120093022000E31C52FC130E600165
:1020D0001302000017A10000130181DC13000000AF
:1020E00093001001130000002314110083118100DC
:1020F000930E10016394D107130212009302200083
:10210000E31A52FC130E70011302000017A1000025
:10211000130101D91300000013000000B7300000C4
:1021200093801000231511008311A100B73E000019
:10213000938E1E006394D1031302120093022000B9
:10214000E31652FC37C500001305F5EE97A5000015
:10215000938505D52393A500631AC00337050010A6
:1021600093055004130620059306F0041307A000FE
:102170002320B5002320C5002320C5002320D5003F
:102180002320C5002320E500730010003705001050
:102190009305F0041306B0049306A0002320B500B5
:1021A0002320C5002320D5006FE0CFB537250000E0
:1021B0001305C51C3706001083050500638A05005A
:1021C0002320B600130515006FF01FFF7375620022
:1021D0009305E0022320B6002320B6009300000000
:1021E00013010000B3812040930E0000130E200065
:1021F0006396D14B9300100013011000B38120406F
:10220000930E0000130E3000639AD1499300300002
:1022100013017000B3812040930EC0FF130E4000E5
:10222000639ED147930000003781FFFFB3812040B8
:10223000B78E0000130E50006392D147B7000080A4
:1022400013010000B3812040B70E0080130E600020
:102250006396D145B70000803781FFFFB3812040EE
:10226000B78E0080130E7000639AD1439300000074
:10227000378100001301F1FFB3812040B78EFFFFCB
:10228000938E1E00130E8000639AD141B700008028
:102290009380F0FF13010000B3812040B70E00804F
:1022A000938EFEFF130E9000639AD13FB70000801B
:1022B0009380F0FF378100001301F1FFB3812040CC
:1022C000B78EFF7F130EA000639AD13DB700008048
:1022D000378100001301F1FFB3812040B78EFF7FEB
:1022E000938E1E00130EB000639AD13BB70000809E
:1022F0009380F0FF3781FFFFB3812040B78E0080CD
:10230000938EFEFF130EC000639AD1399300000034
:102310001301F0FFB3812040930E1000130ED00084
:10232000639ED1379300F0FF13011000B38120406A
:10233000930EE0FF130EE0006392D1379300F0FF9D
:102340001301F0FFB3812040930E0000130EF00044
:102350006396D1359300D0001301B000B3802040C4
:10236000930E2000130E0001639AD0339300E00017
:102370001301B00033812040930E3000130E100182
:10238000631ED1319300D000B3801040930E000043
:10239000130E20016394D031130200009300D0008B
:1023A0001301B000B3812040138301001302120017
:1023B00093022000E31452FE930E2000130E30010E
:1023C000631ED32D130200009300E0001301B00040
:1023D000B381204013000000138301001302120098
:1023E00093022000E31252FE930E3000130E4001C0
:1023F0006316D32B130200009300F0001301B0000A
:10240000B38120401300000013000000138301007B
:102410001302120093022000E31052FE930E4000BC
:10242000130E5001631CD327130200009300D00049
:102430001301B000B3812040130212009302200068
:10244000E31652FE930E2000130E60016398D1250F
:10245000130200009300E0001301B000130000001D
:10246000B38120401302120093022000E31452FEB5
:10247000930E3000130E70016392D12313020000FB
:102480009300F0001301B0001300000013000000DF
:10249000B38120401302120093022000E31252FE87
:1024A000930E4000130E8001639AD11F13020000A7
:1024B0009300D000130000001301B000B38120404E
:1024C0001302120093022000E31452FE930E200028
:1024D000130E90016394D11D130200009300E000DD
:1024E000130000001301B00013000000B38120406E
:1024F0001302120093022000E31252FE930E3000EA
:10250000130EA001639CD119130200009300F00088
:1025100013000000130000001301B000B38120403D
:102520001302120093022000E31252FE930E4000A9
:10253000130EB0016394D117130200001301B00011
:102540009300D000B38120401302120093022000B8
:10255000E31652FE930E2000130EC0016390D115B6
:10256000130200001301B0009300E000130000000C
:10257000B38120401302120093022000E31452FEA4
:10258000930E3000130ED001639AD1111302000094
:102590001301B0009300F0001300000013000000CE
:1025A000B38120401302120093022000E31252FE76
:1025B000930E4000130EE0016392D10F130200004E
:1025C0001301B000130000009300D000B38120403D
:1025D0001302120093022000E31452FE930E200017
:1025E000130EF001639CD10B130200001301B00025
:1025F000130000009300E00013000000B3812040AE
:102600001302120093022000E31252FE930E3000D8
:10261000130E00026394D109130200001301B000ED
:1026200013000000130000009300F000B38120406D
:102630001302120093022000E31252FE930E400098
:10264000130E1002639CD105930010FF330110405C
:10265000930EF000130E20026312D10593000002C6
:1026600033810040930E0002130E30026318D10331
:10267000B3000040930E0000130E40026390D0039D
:10268000930000011301E00133802040930E00000D
:10269000130E50026314D001631AC00337050010F3
:1026A00093055004130620059306F0041307A000B9
:1026B0002320B5002320C5002320C5002320D500FA
:1026C0002320C5002320E50073001000370500100B
:1026D0009305F0041306B0049306A0002320B50070
:1026E0002320C5002320D5006FD0DFE1372500006F
:1026F0001305C5703706001083050500638A0500C1
:102700002320B600130515006FF01FFF736C6C00DB
:102710009305E0022320B6002320B60093001000AA
:1027200013010000B3912000930E1000130E20003F
:10273000639CD1559300100013011000B391200049
:10274000930E2000130E30006390D15593001000BB
:1027500013017000B3912000930E0008130E400087
:102760006394D153930010001301E000B391200053
:10277000B74E0000130E50006398D1519300100023
:102780001301F001B3912000B70E0080130E60001A
:10279000639CD14F9300F0FF13010000B391200020
:1027A000930EF0FF130E70006390D14F9300F0FF73
:1027B00013011000B3912000930EE0FF130E800070
:1027C0006394D14D9300F0FF13017000B39120008A
:1027D000930E00F8130E90006398D14B9300F0FF16
:1027E0001301E000B3912000B7CEFFFF130EA0004D
:1027F000639CD1499300F0FF1301F001B3912000D5
:10280000B70E0080130EB0006390D149B72021218C
:102810009380101213010000B3912000B72E2121E4
:10282000938E1E12130EC0006390D147B720212152
:102830009380101213011000B3912000B74E424252
:10284000938E2E24130ED0006390D145B720212102
:102850009380101213017000B3912000B79E9090E6
:10286000938E0E08130EE0006390D143B720212110
:10287000938010121301E000B3912000B74E484836
:10288000130EF0006392D141B720212193801012E2
:102890001301F001B3912000B70E0080130E000168
:1028A0006394D13FB720212193801012130100FEC1
:1028B000B3912000B72E2121938E1E12130E10010A
:1028C0006394D13DB720212193801012130110FE93
:1028D000B3912000B74E4242938E2E24130E200156
:1028E0006394D13BB720212193801012130170FE15
:1028F000B3912000B79E9090938E0E08130E300176
:102900006394D139B7202121938010121301E0FE86
:10291000B3912000B74E4848130E40016396D1375B
:10292000B7202121938000121301F0FFB391200002
:10293000930E0000130E50016398D13593001000E0
:1029400013017000B3902000930E0008130E600175
:10295000639CD033930010001301E00033912000FA
:10296000B74E0000130E70016310D1339300300096
:10297000B3901000930E8001130E80016396D03146
:10298000130200009300100013017000B3912000A7
:10299000138301001302120093022000E31452FE7D
:1029A000930E0008130E90016310D32F1302000042
:1029B000930010001301E000B39120001300000009
:1029C000138301001302120093022000E31252FE4F
:1029D000B74E0000130EA0016318D32B13020000A2
:1029E000930010001301F001B391200013000000C8
:1029F0001300000013830100130212009302200051
:102A0000E31052FEB70E0080130EB001631ED327F1
:102A1000130200009300100013017000B391200016
:102A20001302120093022000E31652FE930E0008D8
:102A3000130EC001639AD125130200009300100009
:102A40001301E00013000000B391200013021200F4
:102A500093022000E31452FEB74E0000130ED00183
:102A60006394D12313020000930010001301F001BE
:102A70001300000013000000B391200013021200A5
:102A800093022000E31252FEB70E0080130EE00105
:102A9000639CD11F1302000093001000130000007C
:102AA00013017000B3912000130212009302200062
:102AB000E31452FE930E0008130EF0016396D11D2D
:102AC0001302000093001000130000001301E00047
:102AD00013000000B39120001302120093022000A3
:102AE000E31252FEB74E0000130E0002639ED1198E
:102AF00013020000930010001300000013000000F8
:102B00001301F001B3912000130212009302200080
:102B1000E31252FEB70E0080130E10026396D11717
:102B2000130200001301700093001000B391200005
:102B30001302120093022000E31652FE930E0008C7
:102B4000130E20026392D115130200001301E0005E
:102B50009300100013000000B39120001302120034
:102B600093022000E31452FEB74E0000130E300211
:102B7000639CD111130200001301F00193001000B7
:102B80001300000013000000B39120001302120094
:102B900093022000E31252FEB70E0080130E400293
:102BA0006394D10F130200001301700013000000A2
:102BB00093001000B3912000130212009302200032
:102BC000E31452FE930E0008130E5002639ED10BC5
:102BD000130200001301E000130000009300100036
:102BE00013000000B3912000130212009302200092
:102BF000E31252FEB74E0000130E60026396D10935
:102C0000130200001301F001130000001300000084
:102C100093001000B39120001302120093022000D1
:102C2000E31252FEB70E0080130E7002639ED105B0
:102C30009300F00033111000930E0000130E800279
:102C40006314D1059300000233910000930E00023B
:102C5000130E9002631AD103B3100000930E00000C
:102C6000130EA0026392D0039300004037110000BE
:102C70001301018033902000930E0000130EB00268
:102C80006314D001631AC003370500109305500484
:102C9000130620059306F0041307A0002320B500B7
:102CA0002320C5002320C5002320D5002320C500F4
:102CB0002320E50073001000370500109305F00491
:102CC0001306B0049306A0002320B5002320C500FE
:102CD0002320D5006FD01F8337350000130585CF23
:102CE0003706001083050500638A05002320B6001F
:102CF000130515006FF01FFF6C6200009305E002E2
:102D00002320B6002320B600979000009380801AFD
:102D100083810000930EF0FF130E2000639CD123EB
:102D2000979000009380001983811000930E00009B
:102D3000130E30006390D12397900000938080178A
:102D400083812000930E00FF130E40006394D12175
:102D5000979000009380001683813000930EF0005E
:102D6000130E50006398D11F979000009380B01409
:102D70008381D0FF930EF0FF130E6000639CD11D82
:102D800097900000938030138381E0FF930E000042
:102D9000130E70006390D11D979000009380B011C6
:102DA0008381F0FF930E00FF130E80006394D11B0C
:102DB000979000009380301083810000930EF00004
:102DC000130E90006398D119979000009380800EA5
:102DD000938000FE83810002930EF0FF130EA0008B
:102DE000639AD117979000009380C00C9380A0FF46
:102DF00083817000930E0000130EB000639CD11508
:102E0000130EC00013020000979000009380900AF8
:102E10008381100013830100930E00FF631CD31302
:102E20001302120093022000E31052FE130ED00092
:102E300013020000979000009380E0078381100048
:102E40001300000013830100930EF0006314D311EC
:102E50001302120093022000E31E52FC130EE00046
:102E600013020000979000009380C004838110003B
:102E7000130000001300000013830100930E0000F4
:102E8000631AD30D1302120093022000E31C52FCBC
:102E9000130EF00013020000979000009380900141
:102EA00083811000930E00FF6396D10B1302120072
:102EB00093022000E31252FE130E000113020000E1
:102EC00097900000938020FF130000008381100082
:102ED000930EF0006390D1091302120093022000B8
:102EE000E31052FE130E1001130200009790000031
:102EF000938040FC13000000130000008381100049
:102F0000930E00006398D105130212009302200073
:102F1000E31E52FC979100009381C1F903810100E7
:102F200013012000930E2000130E20016314D1031F
:102F300097910000938101F80381010013000000C4
:102F400013012000930E2000130E30016314D101F1
:102F5000631AC003370500109305500413062005BB
:102F60009306F0041307A0002320B5002320C5001A
:102F70002320C5002320D5002320C5002320E50001
:102F800073001000370500109305F0041306B00419
:102F90009306A0002320B5002320C5002320D500E0
:102FA0006FD04FD637350000130545FC37060010AB
:102FB00083050500638A05002320B600130515006C
:102FC0006FF01FFF6C6800009305E0022320B6003D
:102FD0002320B60097900000938000EE83910000BC
:102FE000930EF00F130E2000639CD12597900000E4
:102FF000938080EC83912000930E00F0130E30003C
:103000006390D12597900000938000EB839140005E
:10301000B71E0000938E0EFF130E40006392D12363
:1030200097900000938040E983916000B7FEFFFF16
:10303000938EFE00130E50006394D12197900000F0
:103040009380E0E78391A0FF930EF00F130E6000D2
:103050006398D11F97900000938060E68391C0FF32
:10306000930E00F0130E7000639CD11D979000002A
:103070009380E0E48391E0FFB71E0000938E0EFF83
:10308000130E8000639ED11B97900000938020E375
:1030900083910000B7FEFFFF938EFE00130E900099
:1030A0006390D11B97900000938000E1938000FE15
:1030B00083910002930EF00F130EA0006392D119BA
:1030C00097900000938040DF9380B0FF8391700061
:1030D000930E00F0130EB0006394D117130EC000CE
:1030E0001302000097900000938020DD8391200060
:1030F00013830100B71E0000938E0EFF6312D315D9
:103100001302120093022000E31E52FC130ED000A3
:103110001302000097900000938040DA8391200012
:103120001300000013830100B7FEFFFF938EFE0023
:103130006318D3111302120093022000E31C52FC07
:10314000130EE00013020000979000009380C0D699
:10315000839120001300000013000000138301007E
:10316000930E00F0631ED30D130212009302200091
:10317000E31C52FC130EF0001302000097900000B5
:103180009380A0D383912000B71E0000938E0EFF82
:103190006398D10B1302120093022000E31052FE39
:1031A000130E00011302000097900000938000D1DD
:1031B0001300000083912000B7FEFFFF938EFE00F6
:1031C0006390D1091302120093022000E31E52FC07
:1031D000130E100113020000979000009380C0CDE1
:1031E000130000001300000083912000930E00F0F4
:1031F0006398D1051302120093022000E31E52FCD3
:1032000097910000938141CB0391010013012000AD
:10321000930E2000130E20016314D1039791000038
:10322000938181C903910100130000001301200064
:10323000930E2000130E30016314D101631AC003F2
:103240003705001093055004130620059306F0047B
:103250001307A0002320B5002320C5002320C500AC
:103260002320D5002320C5002320E5007300100093
:10327000370500109305F0041306B0049306A00070
:103280002320B5002320C5002320D5006FD08FA7B1
:10329000373500001305052B3706001083050500A0
:1032A000638A05002320B600130515006FF01FFF89
:1032B000626765009305E0022320B6002320B60074
:1032C000130E2000930000001301000063D62000BD
:1032D0006318C0316316C001E3DE20FE6312C03103
:1032E000130E3000930010001301100063D620006D
:1032F0006318C02F6316C001E3DE20FE6312C02FE7
:10330000130E40009300F0FF1301F0FF63D620007E
:103310006318C02D6316C001E3DE20FE6312C02DCA
:10332000130E5000930010001301000063D620001C
:103330006318C02B6316C001E3DE20FE6312C02BAE
:10334000130E6000930010001301F0FF63D62000FD
:103350006318C0296316C001E3DE20FE6312C02992
:10336000130E70009300F0FF1301E0FF63D62000FE
:103370006318C0276316C001E3DE20FE6312C02776
:10338000130E8000930000001301100063D420008E
:103390006314C0016316C025E3DE20FE130E900007
:1033A0009300F0FF1301100063D420006314C001E8
:1033B0006318C023E3DE20FE130EA0009300E0FF9D
:1033C0001301F0FF63D420006314C001631AC0210D
:1033D000E3DE20FE130EB0009300E0FF13011000A7
:1033E00063D420006314C001631CC01FE3DE20FE11
:1033F000130EC000130200009300F0FF1301000041
:1034000063D0201E1302120093022000E31652FE26
:10341000130ED000130200009300F0FF1301000010
:103420001300000063DE201A130212009302200032
:10343000E31452FE130EE000130200009300F0FFAD
:1034400013010000130000001300000063DA2018CD
:103450001302120093022000E31252FE130EF0003A
:10346000130200009300F0FF13000000130100009E
:1034700063D820161302120093022000E31452FEB8
:10348000130E0001130200009300F0FF1300000070
:10349000130100001300000063D420141302120073
:1034A00093022000E31252FE130E100113020000DB
:1034B0009300F0FF13000000130000001301000050
:1034C00063D020121302120093022000E31252FE76
:1034D000130E2001130200009300F0FF13010000FF
:1034E00063D020101302120093022000E31652FE54
:1034F000130E3001130200009300F0FF13010000CF
:103500001300000063DE200C13021200930220005F
:10351000E31452FE130E4001130200009300F0FF6B
:1035200013010000130000001300000063DA200AFA
:103530001302120093022000E31252FE130E5001F8
:10354000130200009300F0FF1300000013010000BD
:1035500063D820081302120093022000E31452FEE5
:10356000130E6001130200009300F0FF130000002F
:10357000130100001300000063D4200613021200A0
:1035800093022000E31252FE130E7001130200009A
:103590009300F0FF1300000013000000130100006F
:1035A00063D020041302120093022000E31252FEA3
:1035B0009300100063DA00009380100093801000E5
:1035C000938010009380100093801000938010006F
:1035D000930E3000130E80016394D001631AC00370
:1035E0003705001093055004130620059306F004D8
:1035F0001307A0002320B5002320C5002320C50009
:103600002320D5002320C5002320E50073001000EF
:10361000370500109305F0041306B0049306A000CC
:103620002320B5002320C5002320D5006FC09FEDC7
:1036300037350000130505653706001083050500C2
:10364000638C05002320B600130515006FF01FFFE3
:1036500073726169000000009305E0022320B60048
:103660002320B6009300000093D10040930E000089
:10367000130E20006394D12BB700008093D110402B
:10368000B70E00C0130E3000639AD129B700008036
:1036900093D17040B70E00FF130E40006390D12904
:1036A000B700008093D1E040B70EFEFF130E50002C
:1036B0006396D127B70000809380100093D1F0412A
:1036C000930EF0FF130E6000639AD125B7000080BF
:1036D0009380F0FF93D10040B70E0080938EFEFFE1
:1036E000130E7000639CD123B70000809380F0FF1D
:1036F00093D11040B70E0040938EFEFF130E800052
:10370000639ED121B70000809380F0FF93D1704079
:10371000B70E0001938EFEFF130E90006390D1212F
:10372000B70000809380F0FF93D1E040B70E020015
:10373000938EFEFF130EA0006392D11FB70000808E
:103740009380F0FF93D1F041930E0000130EB00070
:103750006396D11DB78081819380101893D100406A
:10376000B78E8181938E1E18130EC0006398D11BF3
:10377000B78081819380101893D11040B7CEC0C01C
:10378000938E0E0C130ED000639AD119B7808181ED
:103790009380101893D17040B70E03FF938E3E3084
:1037A000130EE000639CD117B780818193801018BD
:1037B00093D1E040B70EFEFF938E6E60130EF000C3
:1037C000639ED115B78081819380101893D1F04109
:1037D000930EF0FF130E00016392D115B700008025
:1037E00093D07040B70E00FF130E10016398D013F2
:1037F00013020000B700008093D1704013830100D2
:103800001302120093022000E31652FEB70E00FFCF
:10381000130E20016314D31113020000B7000080BF
:1038200093D1E04013000000138301001302120043
:1038300093022000E31452FEB70EFEFF130E300178
:10384000631ED30D13020000B700008093801000A8
:1038500093D1F04113000000130000001383010016
:103860001302120093022000E31052FE930EF0FFA9
:10387000130E40016314D30B13020000B700008045
:1038800093D170401302120093022000E31852FEFD
:10389000B70E00FF130E50016392D109130200000E
:1038A000B70000801300000093D1E0401302120023
:1038B00093022000E31652FEB70EFEFF130E6001C6
:1038C000639ED10513020000B700008093801000B2
:1038D000130000001300000093D1F0411302120006
:1038E00093022000E31252FE930EF0FF130E7001BC
:1038F0006396D1039350F041930E0000130E8001A4
:10390000639ED0019300100213D04041930E00003B
:10391000130E90016314D001631AC0033705001021
:1039200093055004130620059306F0041307A00026
:103930002320B5002320C5002320C5002320D50067
:103940002320C5002320E500730010003705001078
:103950009305F0041306B0049306A0002320B500DD
:103960002320C5002320D5006FC0DFB937450000F4
:103970001305C5983706001083050500638C050004
:103980002320B600130515006FF01FFF626C7475DD
:10399000000000009305E0022320B6002320B600BB
:1039A000130E2000930000001301100063E62000B6
:1039B0006312C02F6316C001E3EE20FE631CC02D0E
:1039C000130E30009300E0FF1301F0FF63E62000C8
:1039D0006312C02D6316C001E3EE20FE631CC02BF2
:1039E000130E4000930000001301F0FF63E6200077
:1039F0006312C02B6316C001E3EE20FE631CC029D6
:103A0000130E5000930010001301000063E4200027
:103A10006314C0016310C029E3EE20FE130E6000A2
:103A20009300F0FF1301E0FF63E420006314C00182
:103A30006312C027E3EE20FE130E70009300F0FF28
:103A40001301000063E420006314C0016314C02567
:103A5000E3EE20FE130E8000B700008037010080E7
:103A60001301F1FF63E420006314C0016314C02359
:103A7000E3EE20FE130E900013020000B70000F0EA
:103A8000370100F01301F1FF63E62020130212005A
:103A900093022000E31452FE130EA0001302000054
:103AA000B70000F0370100F01301F1FF1300000030
:103AB00063E2201E1302120093022000E31252FE62
:103AC000130EB00013020000B70000F0370100F041
:103AD0001301F1FF130000001300000063EC201A33
:103AE0001302120093022000E31052FE130EC000D6
:103AF00013020000B70000F013000000370100F0CF
:103B00001301F1FF63E82018130212009302200052
:103B1000E31252FE130ED00013020000B70000F0B3
:103B200013000000370100F01301F1FF1300000043
:103B300063E220161302120093022000E31052FEEB
:103B4000130EE00013020000B70000F013000000A5
:103B500013000000370100F01301F1FF63EC2012A5
:103B60001302120093022000E31052FE130EF00025
:103B700013020000B70000F0370100F01301F1FF5D
:103B800063EA20101302120093022000E31452FE95
:103B9000130E000113020000B70000F0370100F01F
:103BA0001301F1FF1300000063E6200E1302120060
:103BB00093022000E31252FE130E100113020000C4
:103BC000B70000F0370100F01301F1FF130000000F
:103BD0001300000063E0200C130212009302200087
:103BE000E31052FE130E200113020000B70000F094
:103BF00013000000370100F01301F1FF63EC20080F
:103C00001302120093022000E31252FE130E300141
:103C100013020000B70000F013000000370100F0AD
:103C20001301F1FF1300000063E6200613021200E7
:103C300093022000E31052FE130E40011302000015
:103C4000B70000F01300000013000000370100F07F
:103C50001301F1FF63E0200413021200930220001D
:103C6000E31052FE93001000636A1000938010006E
:103C700093801000938010009380100093801000B8
:103C800093801000930E3000130E50016394D00106
:103C9000631AC0033705001093055004130620056E
:103CA0009306F0041307A0002320B5002320C500CD
:103CB0002320C5002320D5002320C5002320E500B4
:103CC00073001000370500109305F0041306B004CC
:103CD0009306A0002320B5002320C5002320D50093
:103CE0006FC05F8237450000130545D037060010CE
:103CF00083050500638C05002320B600130515001D
:103D00006FF01FFF6D756C68000000009305E00206
:103D10002320B6002320B60093000000130100000A
:103D2000B3912002930E0000130E2000639AD14B32
:103D30009300100013011000B3912002930E0000B5
:103D4000130E3000639ED1499300300013017000C0
:103D5000B3912002930E0000130E40006392D149EC
:103D6000930000003781FFFFB3912002930E000003
:103D7000130E50006396D147B70000801301000076
:103D8000B3912002930E0000130E6000639AD14598
:103D9000B700008013010000B3912002930E0000D1
:103DA000130E7000639ED143B7B0AAAA9380B0AA45
:103DB000370103001301D1E7B3912002B70EFFFFD3
:103DC000938E1E08130EE001639CD141B7000300DF
:103DD0009380D0E737B1AAAA1301B1AAB391200208
:103DE000B70EFFFF938E1E08130EF001639AD13FAA
:103DF000B70000FF370100FFB3912002B70E0100AA
:103E0000130E0002639ED13D9300F0FF1301F0FFFB
:103E1000B3912002930E0000130E10026392D13D65
:103E20009300F0FF13011000B3912002930EF0FFF6
:103E3000130E20026396D13B930010001301F0FF94
:103E4000B3912002930EF0FF130E3002639AD13922
:103E5000B700D0003701B000B3902002B79E000039
:103E6000938E0EF0130E8000639CD037B700E000F5
:103E70003701B00033912002B7AE0000938E0EA040
:103E8000130E9000631ED135B700D000B39010021E
:103E9000B7BE0000938E0E90130EA0006392D03533
:103EA00013020000B700D0003701B000B391200228
:103EB000138301001302120093022000E31452FE48
:103EC000B79E0000938E0EF0130EB000631AD3312C
:103ED00013020000B700E0003701B000B3912002E8
:103EE000130000001383010013021200930220004C
:103EF000E31252FEB7AE0000938E0EA0130EC00068
:103F00006310D32F13020000B700F0003701B00098
:103F1000B39120021300000013000000138301007E
:103F20001302120093022000E31052FEB7AE00000D
:103F3000938E0E50130ED0006314D32B1302000087
:103F4000B700D0003701B000B39120021302120075
:103F500093022000E31652FEB79E0000938E0EF0EF
:103F6000130EE000639ED12713020000B700E000AB
:103F70003701B00013000000B391200213021200B9
:103F800093022000E31452FEB7AE0000938E0EA001
:103F9000130EF0006396D12513020000B700F00065
:103FA0003701B0001300000013000000B39120029D
:103FB0001302120093022000E31252FEB7AE00007B
:103FC000938E0E50130E0001639CD121130200004A
:103FD000B700D000130000003701B000B3912002F9
:103FE0001302120093022000E31452FEB79E000059
:103FF000938E0EF0130E10016394D11F1302000074
:10400000B700E000130000003701B000130000000B
:10401000B39120021302120093022000E31252FE19
:10402000B7AE0000938E0EA0130E2001639AD11B31
:1040300013020000B700F00013000000130000009E
:104040003701B000B3912002130212009302200046
:10405000E31252FEB7AE0000938E0E50130E3001E5
:104060006390D119130200003701B000B700D000EF
:10407000B39120021302120093022000E31652FEB5
:10408000B79E0000938E0EF0130E4001639AD11577
:10409000130200003701B000B700E0001300000079
:1040A000B39120021302120093022000E31452FE87
:1040B000B7AE0000938E0EA0130E50016392D11381
:1040C000130200003701B000B700F0001300000039
:1040D00013000000B391200213021200930220008B
:1040E000E31252FEB7AE0000938E0E50130E600125
:1040F0006398D10F130200003701B00013000000D5
:10410000B700D000B39120021302120093022000E6
:10411000E31452FEB79E0000938E0EF0130E700152
:104120006390D10D130200003701B00013000000AE
:10413000B700E00013000000B39120021302120048
:1041400093022000E31252FEB7AE0000938E0EA041
:10415000130E80016396D109130200003701B000ED
:104160001300000013000000B700F000B39120021C
:104170001302120093022000E31252FEB7AE0000B9
:10418000938E0E50130E9001639CD105B700007CF6
:1041900033111002930E0000130EA0016312D1051B
:1041A000B700008033910002930E0000130EB0019F
:1041B0006318D103B3100002930E0000130EC00168
:1041C0006390D003B7001002370120023390200221
:1041D000930E0000130ED0016314D001631AC003C4
:1041E0003705001093055004130620059306F004CC
:1041F0001307A0002320B5002320C5002320C500FD
:104200002320D5002320C5002320E50073001000E3
:10421000370500109305F0041306B0049306A000C0
:104220002320B5002320C5002320D5006FC08FAD0B
:1042300037450000130505253706001083050500E6
:10424000638C05002320B600130515006FF01FFFD7
:1042500064697675000000009305E0022320B60033
:104260002320B6009300400113016000B3D1200267
:10427000930E3000130E20006396D10D9300C0FE04
:1042800013016000B3D12002B7BEAA2A938E7EAA82
:10429000130E30006398D10B930040011301A0FF6F
:1042A000B3D12002930E0000130E4000639CD1098D
:1042B0009300C0FE1301A0FFB3D12002930E0000B3
:1042C000130E50006390D109B70000801301100055
:1042D000B3D12002B70E0080130E60006394D107A3
:1042E000B70000801301F0FFB3D12002930E00004D
:1042F000130E70006398D105B70000801301000011
:10430000B3D12002930EF0FF130E8000639CD10303
:104310009300100013010000B3D12002930EF0FFB0
:10432000130E90006390D10393000000130100006E
:10433000B3D12002930EF0FF130EA0006394D101BD
:10434000631AC003370500109305500413062005B7
:104350009306F0041307A0002320B5002320C50016
:104360002320C5002320D5002320C5002320E500FD
:1043700073001000370500109305F0041306B00415
:104380009306A0002320B5002320C5002320D500DC
:104390006FC04F97374500001305453B37060010A7
:1043A00083050500638C05002320B6001305150066
:1043B0006FF01FFF73726C69000000009305E0024C
:1043C0002320B6002320B600B780FFFF93D1000062
:1043D000B78EFFFF130E20006392D12BB780FFFF33
:1043E00093D11000B7CEFF7F130E30006398D12910
:1043F000B780FFFF93D17000B70E0002938E0EF0CE
:10440000130E4000639CD127B780FFFF93D1E000DB
:10441000B70E0400938EEEFF130E50006390D12769
:10442000B780FFFF9380100093D1F000B70E020019
:10443000938EFEFF130E60006392D1259300F0FF70
:1044400093D10000930EF0FF130E70006398D123F8
:104450009300F0FF93D11000B70E0080938EFEFF03
:10446000130E8000639CD1219300F0FF93D1700064
:10447000B70E0002938EFEFF130E90006390D121C1
:104480009300F0FF93D1E000B70E0400938EFEFF7F
:10449000130EA0006394D11F9300F0FF93D1F0019D
:1044A000930E1000130EB000639AD11DB720212186
:1044B0009380101293D10000B72E2121938E1E12EB
:1044C000130EC000639CD11BB720212193801012D2
:1044D00093D11000B79E9010938E0E09130ED0004A
:1044E000639ED119B72021219380101293D17000BF
:1044F000B74E4200938E2E24130EE0006390D11924
:10450000B72021219380101293D1E000B78E0000D4
:10451000938E4E48130EF0006392D117B7202121DD
:104520009380101293D1F001930E0000130E00013E
:104530006396D115B780FFFF93D01000B7CEFF7FF1
:10454000130E5001639CD01313020000B780FFFFCD
:1045500093D1100013830100130212009302200074
:10456000E31652FEB7CEFF7F130E60016318D3111E
:1045700013020000B780FFFF93D1E000130000009A
:10458000138301001302120093022000E31452FE71
:10459000B70E0400938EEEFF130E70016310D30F5D
:1045A00013020000B780FFFF93D1F000130000005A
:1045B0001300000013830100130212009302200075
:1045C000E31252FEB70E0200938EFEFF130E80011F
:1045D0006316D30B13020000B780FFFF93D11000C6
:1045E0001302120093022000E31852FEB7CEFF7FA1
:1045F000130E90016394D10913020000B780FFFFEE
:104600001300000093D1E000130212009302200077
:10461000E31652FEB70E0400938EEEFF130EA001B8
:10462000639ED10513020000B780FFFF1300000056
:104630001300000093D1F000130212009302200037
:10464000E31452FEB70E0200938EFEFF130EB0016C
:104650006396D1039350F001930E0000130EC00136
:10466000639ED0019300100213D04001930E00000E
:10467000130ED0016314D001631AC0033705001074
:1046800093055004130620059306F0041307A000B9
:104690002320B5002320C5002320C5002320D500FA
:1046A0002320C5002320E50073001000370500100B
:1046B0009305F0041306B0049306A0002320B50070
:1046C0002320C5002320D5006FB0DFE3374500006D
:1046D0001305C56E3706001083050500638C0500C1
:1046E0002320B600130515006FF01FFF6267657584
:1046F000000000009305E0022320B6002320B6004E
:10470000130E2000930000001301000063F6200048
:104710006312C0356316C001E3FE20FE631CC03384
:10472000130E3000930010001301100063F62000F8
:104730006312C0336316C001E3FE20FE631CC03168
:10474000130E40009300F0FF1301F0FF63F620000A
:104750006312C0316316C001E3FE20FE631CC02F4C
:10476000130E5000930010001301000063F62000A8
:104770006312C02F6316C001E3FE20FE631CC02D30
:10478000130E60009300F0FF1301E0FF63F62000BA
:104790006312C02D6316C001E3FE20FE631CC02B14
:1047A000130E70009300F0FF1301000063F6200069
:1047B0006312C02B6316C001E3FE20FE631CC029F8
:1047C000130E8000930000001301100063F420001A
:1047D0006314C0016310C029E3FE20FE130E900095
:1047E0009300E0FF1301F0FF63F420006314C001A5
:1047F0006312C027E3FE20FE130EA000930000000A
:104800001301F0FF63F420006314C0016314C0259A
:10481000E3FE20FE130EB000B70000809380F0FF8F
:104820003701008063F420006314C0016314C023C7
:10483000E3FE20FE130EC00013020000B70000F0DC
:104840009380F0FF370100F063F62020130212007E
:1048500093022000E31452FE130ED0001302000056
:10486000B70000F09380F0FF370100F01300000064
:1048700063F2201E1302120093022000E31252FE84
:10488000130EE00013020000B70000F09380F0FF69
:10489000370100F0130000001300000063FC201A31
:1048A0001302120093022000E31052FE130EF000D8
:1048B00013020000B70000F09380F0FF1300000027
:1048C000370100F063F82018130212009302200051
:1048D000E31252FE130E000113020000B70000F0B5
:1048E0009380F0FF13000000370100F01300000078
:1048F00063F220161302120093022000E31052FE0E
:10490000130E100113020000B70000F09380F0FFB7
:104910001300000013000000370100F063FC2012B8
:104920001302120093022000E31052FE130E200126
:1049300013020000B70000F09380F0FF370100F091
:1049400063FA20101302120093022000E31452FEB7
:10495000130E300113020000B70000F09380F0FF47
:10496000370100F01300000063F6200E130212005E
:1049700093022000E31252FE130E400113020000C6
:10498000B70000F09380F0FF370100F01300000043
:104990001300000063F0200C1302120093022000A9
:1049A000E31052FE130E500113020000B70000F096
:1049B0009380F0FF13000000370100F063FC200833
:1049C0001302120093022000E31252FE130E600144
:1049D00013020000B70000F09380F0FF1300000006
:1049E000370100F01300000063F6200613021200E6
:1049F00093022000E31052FE130E70011302000018
:104A0000B70000F09380F0FF1300000013000000D7
:104A1000370100F063F0200413021200930220001B
:104A2000E31052FE9300100063FA00009380100020
:104A300093801000938010009380100093801000EA
:104A400093801000930E3000130E80016394D00108
:104A5000631AC003370500109305500413062005A0
:104A60009306F0041307A0002320B5002320C500FF
:104A70002320C5002320D5002320C5002320E500E6
:104A800073001000370500109305F0041306B004FE
:104A90009306A0002320B5002320C5002320D500C5
:104AA0006FB05FA637550000130545AC3706001000
:104AB00083050500638A05002320B6001305150051
:104AC0006FF01FFF6C7700009305E0022320B60013
:104AD0002320B600977000009380803E83A10000E1
:104AE000B70EFF00938EFE0F130E2000639AD1279E
:104AF000977000009380C03C83A14000B70E01FF77
:104B0000938E0EF0130E3000639CD1259770000039
:104B10009380003B83A18000B71EF00F938E0EFFA1
:104B2000130E4000639ED12397700000938040399C
:104B300083A1C000B7FE0FF0938EFE00130E50004D
:104B40006390D123977000009380403883A140FF89
:104B5000B70EFF00938EFE0F130E60006392D121FB
:104B6000977000009380803683A180FFB70E01FF0D
:104B7000938E0EF0130E70006394D11F9770000097
:104B80009380C03483A1C0FFB71EF00F938E0EFF39
:104B9000130E80006396D11D977000009380003340
:104BA00083A10000B7FE0FF0938EFE00130E90005D
:104BB0006398D11B9770000093808030938000FE33
:104BC00083A10002B70EFF00938EFE0F130EA0000C
:104BD0006398D119977000009380802E9380D0FF46
:104BE00083A17000B70E01FF938E0EF0130EB0007C
:104BF0006398D117130EC0001302000097700000D5
:104C00009380402C83A1400013830100B71EF00F56
:104C1000938E0EFF6316D315130212009302200029
:104C2000E31E52FC130ED000130200009770000028
:104C30009380802983A140001300000013830100AA
:104C4000B7FE0FF0938EFE00631CD3111302120007
:104C500093022000E31C52FC130EE000130200003C
:104C6000977000009380C02583A1400013000000CE
:104C70001300000013830100B70E01FF938E0EF0A6
:104C80006310D30F1302120093022000E31A52FCA8
:104C9000130EF00013020000977000009380802232
:104CA00083A14000B71EF00F938E0EFF639AD10BC5
:104CB0001302120093022000E31052FE130E0001B3
:104CC0001302000097700000938000201300000082
:104CD00083A14000B7FE0FF0938EFE006392D109CE
:104CE0001302120093022000E31E52FC130E100167
:104CF00013020000977000009380801C13000000D6
:104D00001300000083A14000B70E01FF938E0EF048
:104D10006398D1051302120093022000E31C52FC99
:104D2000977100009381C11903A1010013012000B4
:104D3000930E2000130E20016314D103977100001D
:104D40009381011803A1010013000000130120004A
:104D5000930E2000130E30016314D101631AC003B7
:104D60003705001093055004130620059306F00440
:104D70001307A0002320B5002320C5002320C50071
:104D80002320D5002320C5002320E5007300100058
:104D9000370500109305F0041306B0049306A00035
:104DA0002320B5002320C5002320D5006FB08FF548
:104DB00037550000130505DD370600108305050093
:104DC000638A05002320B600130515006FF01FFF4E
:104DD000646976009305E0022320B6002320B60024
:104DE0009300400113016000B3C12002930E300014
:104DF000130E20006394D10D9300C0FE13016000D8
:104E0000B3C12002930ED0FF130E30006398D10B74
:104E1000930040011301A0FFB3C12002930ED0FF05
:104E2000130E4000639CD1099300C0FE1301A0FF44
:104E3000B3C12002930E3000130E50006390D109CD
:104E4000B700008013011000B3C12002B70E00802C
:104E5000130E60006394D107B70000801301F0FFC8
:104E6000B3C12002B70E0080130E70006398D10505
:104E7000B700008013010000B3C12002930EF0FFC1
:104E8000130E8000639CD1039300100013010000F7
:104E9000B3C12002930EF0FF130E90006390D10374
:104EA0009300000013010000B3C12002930EF0FF35
:104EB000130EA0006394D101631AC00337050010DC
:104EC00093055004130620059306F0041307A00071
:104ED0002320B5002320C5002320C5002320D500B2
:104EE0002320C5002320E5007300100037050010C3
:104EF0009305F0041306B0049306A0002320B50028
:104F00002320C5002320D5006FB0CFDF3755000028
:104F10001305C5F23706001083050500638A0500F6
:104F20002320B600130515006FF01FFF62657100A6
:104F30009305E0022320B6002320B600130E2000C4
:104F40009300000013010000638620006318C02B4B
:104F50006316C001E38E20FE6312C02B130E3000D7
:104F60009300100013011000638620006318C0290D
:104F70006316C001E38E20FE6312C029130E4000A9
:104F80009300F0FF1301F0FF638620006318C02731
:104F90006316C001E38E20FE6312C027130E50007B
:104FA0009300000013011000638420006314C0010B
:104FB0006316C025E38E20FE130E600093001000E0
:104FC00013010000638420006314C0016318C02330
:104FD000E38E20FE130E70009300F0FF130110000B
:104FE000638420006314C001631AC021E38E20FE95
:104FF000130E8000930010001301F0FF6384200063
:105000006314C001631CC01FE38E20FE130E9000CA
:1050100013020000930000001301F0FF6380201EC4
:105020001302120093022000E31652FE130EA0009A
:1050300013020000930000001301F0FF13000000B2
:10504000638E201A1302120093022000E31452FE12
:10505000130EB00013020000930000001301F0FFD4
:105060001300000013000000638A201813021200CE
:1050700093022000E31252FE130EC0001302000040
:1050800093000000130000001301F0FF6388201656
:105090001302120093022000E31452FE130ED000FC
:1050A0001302000093000000130000001301F0FF42
:1050B00013000000638420141302120093022000E6
:1050C000E31252FE130EE0001302000093000000F2
:1050D00013000000130000001301F0FF6380201292
:1050E0001302120093022000E31252FE130EF0008E
:1050F00013020000930000001301F0FF63802010F2
:105100001302120093022000E31652FE130E000158
:1051100013020000930000001301F0FF13000000D1
:10512000638E200C1302120093022000E31452FE3F
:10513000130E100113020000930000001301F0FF92
:105140001300000013000000638A200A13021200FB
:1051500093022000E31252FE130E200113020000FE
:1051600093000000130000001301F0FF6388200883
:105170001302120093022000E31452FE130E3001BA
:105180001302000093000000130000001301F0FF61
:105190001300000063842006130212009302200013
:1051A000E31252FE130E40011302000093000000B0
:1051B00013000000130000001301F0FF63802004BF
:1051C0001302120093022000E31252FE930010001B
:1051D000630A0000938010009380100093801000F9
:1051E000938010009380100093801000930E300085
:1051F000130E50016394D001631AC00337050010E9
:1052000093055004130620059306F0041307A0002D
:105210002320B5002320C5002320C5002320D5006E
:105220002320C5002320E50073001000370500107F
:105230009305F0041306B0049306A0002320B500E4
:105240002320C5002320D5006FB0CFAB3755000019
:105250001305C5263706001083050500638A05007F
:105260002320B600130515006FF01FFF73770000B1
:105270009305E0022320B6002320B60097700000BB
:10528000938000C53701AA001301A10A23A02000C2
:1052900083A10000B70EAA00938EAE0A130E200061
:1052A0006390D14797700000938080C237B100AA05
:1052B000130101A023A2200083A14000B7BE00AAD1
:1052C000938E0EA0130E3000639CD14397700000A4
:1052D000938000C03711A00A130101AA23A4200063
:1052E00083A18000B71EA00A938E0EAA130E400061
:1052F0006398D14197700000938080BD37A10AA0C8
:105300001301A10023A6200083A1C000B7AE0AA00C
:10531000938EAE00130E50006394D13F977000003F
:105320009380C0BC3701AA001301A10A23AA20FE62
:1053300083A140FFB70EAA00938EAE0A130E600041
:105340006390D13D97700000938040BA37B100AAB6
:10535000130101A023AC20FE83A180FFB7BE00AAE9
:10536000938E0EA0130E7000639CD13997700000CD
:105370009380C0B73711A00A130101AA23AE20FE03
:1053800083A1C0FFB71EA00A938E0EAA130E800041
:105390006398D13797700000938040B537A10AA079
:1053A0001301A10023A0200083A10000B7AE0AA032
:1053B000938EAE00130E90006394D1359770000069
:1053C000938000B33751341213018167138200FEBA
:1053D0002320220283A10000B75E3412938E8E67D1
:1053E000130EA000639ED13197700000938040B0EF
:1053F00037312158130181099380D0FFA3A32000E6
:1054000017720000130202AF83210200B73E215839
:10541000938E8E09130EB0006394D12F130EC0002B
:1054200013020000B7D0BBAA9380D0CD1771000043
:10543000130101AA2320110083210100B7DEBBAABA
:10544000938EDECD639ED12B1302120093022000B7
:10545000E31A52FC130ED00013020000B7C0ABDAFF
:105460009380D0CC17710000130181A613000000B7
:105470002322110083214100B7CEABDA938EDECC1C
:105480006390D1291302120093022000E31852FC0A
:10549000130EE00013020000B7C0AADD9380C0BC69
:1054A000177100001301C1A21300000013000000D7
:1054B0002324110083218100B7CEAADD938ECEBCB8
:1054C0006390D1251302120093022000E31652FCD0
:1054D000130EF00013020000B7B0DACD9380C0BB0A
:1054E00013000000177100001301819E2326110094
:1054F0008321C100B7BEDACD938ECEBB6392D1219A
:105500001302120093022000E31852FC130E000154
:1055100013020000B7B0DDCC9380B0AB13000000E5
:10552000177100001301C19A130000002328110015
:1055300083210101B7BEDDCC938EBEAB6392D11D3A
:105540001302120093022000E31652FC130E100106
:1055500013020000B7E0CDBC9380B0AA1300000096
:10556000130000001771000013018196232A110017
:1055700083214101B7EECDBC938EBEAA6392D119AF
:105580001302120093022000E31652FC130E2001B6
:10559000130200001771000013018193B72011005E
:1055A000938030232320110083210100B72E1100A6
:1055B000938E3E236396D1151302120093022000AE
:1055C000E31A52FC130E30011302000017710000A1
:1055D00013010190B71001309380302213000000B6
:1055E0002322110083214100B71E0130938E3E22F9
:1055F0006398D1111302120093022000E31852FCA9
:10560000130E400113020000177100001301418CBA
:10561000B710003393802012130000001300000025
:105620002324110083218100B71E0033938E2E1294
:105630006398D10D1302120093022000E31652FC6E
:10564000130E50011302000017710000130141886E
:1056500013000000B700302393802011232611008F
:105660008321C100B70E3023938E2E11639AD10986
:105670001302120093022000E31852FC130E600183
:105680001302000017710000130181841300000051
:10569000B70033229380100113000000232811006B
:1056A00083210101B70E3322938E1E01639AD10527
:1056B0001302120093022000E31652FC130E700135
:1056C0001302000017710000130181801300000015
:1056D00013000000B730231293801000232A11001A
:1056E00083214101B73E2312938E1E00639AD1019C
:1056F0001302120093022000E31652FC631AC00347
:105700003705001093055004130620059306F00496
:105710001307A0002320B5002320C5002320C500C7
:105720002320D5002320C5002320E50073001000AE
:10573000370500109305F0041306B0049306A0008B
:105740002320B5002320C5002320D5006FA09FDBB8
:10575000375500001305057737060010830505004F
:10576000638C05002320B600130515006FF01FFFA2
:1057700061646469000000009305E0022320B60024
:105780002320B6009300000093810000930E0000D8
:10579000130E2000639CD12793001000938110000A
:1057A000930E2000130E30006392D1279300300037
:1057B00093817000930EA000130E40006398D125D2
:1057C0009300000093810080930E0080130E500020
:1057D000639ED123B700008093810000B70E008044
:1057E000130E60006394D123B70000809381008082
:1057F000B70E0080938E0E80130E70006398D12137
:10580000930000009381F07F930EF07F130E8000D1
:10581000639ED11FB70000809380F0FF938100004A
:10582000B70E0080938EFEFF130E90006390D11F81
:10583000B70000809380F0FF9381F07FB70E008067
:10584000938EEE7F130EA0006392D11DB7000080EF
:105850009381F07FB70E0080938EFE7F130EB00011
:105860006396D11BB70000809380F0FF9381008086
:10587000B7FEFF7F938EFE7F130EC0006398D11991
:10588000930000009381F0FF930EF0FF130ED00001
:10589000639ED1179300F0FF93811000930E0000D8
:1058A000130EE0006394D1179300F0FF9381F0FF93
:1058B000930EE0FF130EF000639AD115B70000803D
:1058C0009380F0FF93811000B70E0080130E00014B
:1058D000639ED1139300D0009380B000930E80019B
:1058E000130E10016394D013130200009300D00034
:1058F0009381B00013830100130212009302200071
:10590000E31652FE930E8001130E20016310D31193
:10591000130200009300D0009381A0001300000048
:10592000138301001302120093022000E31452FEBD
:10593000930E7001130E3001631AD30D1302000091
:105940009300D0009381900013000000130000002A
:10595000138301001302120093022000E31252FE8F
:10596000930E6001130E40016312D30B130200006B
:105970009300D0009381B000130212009302200024
:10598000E31852FE930E8001130E50016390D1096B
:10599000130200009300D000130000009381A000C8
:1059A0001302120093022000E31652FE930E7001C0
:1059B000130E6001639CD105130200009300D00018
:1059C00013000000130000009381900013021200E6
:1059D00093022000E31452FE930E6001130E700137
:1059E0006396D10393000002930E0002130E800110
:1059F000639ED0019300100213802003930E0000D9
:105A0000130E90016314D001631AC0033705001010
:105A100093055004130620059306F0041307A00015
:105A20002320B5002320C5002320C5002320D50056
:105A30002320C5002320E500730010003705001067
:105A40009305F0041306B0049306A0002320B500CC
:105A50002320C5002320D5006FA0DFAA37650000F2
:105A60001305C5A73706001083050500638C0500E4
:105A70002320B600130515006FF01FFF6A616C72DA
:105A8000000000009305E0022320B6002320B600AA
:105A9000130E2000930F0000170100001301810175
:105AA000E709010013000000130000006F00400E22
:105AB00097000000938000FF93804000639A300DB0
:105AC000130E3000930F00009701000093814101F5
:105AD00067800100130000006F00800B639A0F0ABB
:105AE000130E40001302000017030000130303010C
:105AF000E7090300631EC00913021200930220008D
:105B0000E31452FE130E50001302000017030000AE
:105B10001303430113000000E7090300631AC007E1
:105B20001302120093022000E31252FE130E6000D3
:105B30001302000017030000130383011300000089
:105B400013000000E70903006314C00513021200EC
:105B500093022000E31052FE930010001701000092
:105B60001301C101E709C1FF938010009380100069
:105B70009380100093801000938010009380100099
:105B8000930E4000130E70006394D001631AC0039B
:105B90003705001093055004130620059306F00402
:105BA0001307A0002320B5002320C5002320C50033
:105BB0002320D5002320C5002320E500730010001A
:105BC000370500109305F0041306B0049306A000F7
:105BD0002320B5002320C5002320D5006FA09F926D
:105BE00037650000130505C0370600108305050062
:105BF000638A05002320B600130515006FF01FFF10
:105C0000626E65009305E0022320B6002320B600F3
:105C1000130E200093000000130110006396200073
:105C2000631AC02B6316C001E39E20FE6314C02BD1
:105C3000130E300093001000130100006396200043
:105C4000631AC0296316C001E39E20FE6314C029B5
:105C5000130E40009300F0FF130110006396200024
:105C6000631AC0276316C001E39E20FE6314C02799
:105C7000130E5000930010001301F0FF63962000F4
:105C8000631AC0256316C001E39E20FE6314C0257D
:105C9000130E6000930000001301000063942000C5
:105CA0006314C0016318C023E39E20FE130E70002E
:105CB0009300100013011000639420006314C001CE
:105CC000631AC021E39E20FE130E80009300F0FFB4
:105CD0001301F0FF639420006314C001631CC01F14
:105CE000E39E20FE130E90001302000093000000BC
:105CF000130100006390201E130212009302200083
:105D0000E31652FE130EA0001302000093000000E1
:105D10001301000013000000639E201A13021200FA
